{
    "contractName": "Voting",
    "abi": [
        {
            "inputs": [
                {
                    "internalType": "uint256",
                    "name": "_phaseLength",
                    "type": "uint256"
                },
                {
                    "components": [
                        {
                            "internalType": "uint256",
                            "name": "rawValue",
                            "type": "uint256"
                        }
                    ],
                    "internalType": "struct FixedPoint.Unsigned",
                    "name": "_gatPercentage",
                    "type": "tuple"
                },
                {
                    "components": [
                        {
                            "internalType": "uint256",
                            "name": "rawValue",
                            "type": "uint256"
                        }
                    ],
                    "internalType": "struct FixedPoint.Unsigned",
                    "name": "_inflationRate",
                    "type": "tuple"
                },
                {
                    "internalType": "uint256",
                    "name": "_rewardsExpirationTimeout",
                    "type": "uint256"
                },
                {
                    "internalType": "address",
                    "name": "_votingToken",
                    "type": "address"
                },
                {
                    "internalType": "address",
                    "name": "_finder",
                    "type": "address"
                },
                {
                    "internalType": "address",
                    "name": "_timerAddress",
                    "type": "address"
                }
            ],
            "stateMutability": "nonpayable",
            "type": "constructor"
        },
        {
            "anonymous": false,
            "inputs": [
                {
                    "indexed": true,
                    "internalType": "address",
                    "name": "voter",
                    "type": "address"
                },
                {
                    "indexed": true,
                    "internalType": "uint256",
                    "name": "roundId",
                    "type": "uint256"
                },
                {
                    "indexed": true,
                    "internalType": "bytes32",
                    "name": "identifier",
                    "type": "bytes32"
                },
                {
                    "indexed": false,
                    "internalType": "uint256",
                    "name": "time",
                    "type": "uint256"
                },
                {
                    "indexed": false,
                    "internalType": "bytes",
                    "name": "ancillaryData",
                    "type": "bytes"
                },
                {
                    "indexed": false,
                    "internalType": "bytes",
                    "name": "encryptedVote",
                    "type": "bytes"
                }
            ],
            "name": "EncryptedVote",
            "type": "event"
        },
        {
            "anonymous": false,
            "inputs": [
                {
                    "indexed": true,
                    "internalType": "address",
                    "name": "previousOwner",
                    "type": "address"
                },
                {
                    "indexed": true,
                    "internalType": "address",
                    "name": "newOwner",
                    "type": "address"
                }
            ],
            "name": "OwnershipTransferred",
            "type": "event"
        },
        {
            "anonymous": false,
            "inputs": [
                {
                    "indexed": true,
                    "internalType": "uint256",
                    "name": "roundId",
                    "type": "uint256"
                },
                {
                    "indexed": true,
                    "internalType": "bytes32",
                    "name": "identifier",
                    "type": "bytes32"
                },
                {
                    "indexed": false,
                    "internalType": "uint256",
                    "name": "time",
                    "type": "uint256"
                }
            ],
            "name": "PriceRequestAdded",
            "type": "event"
        },
        {
            "anonymous": false,
            "inputs": [
                {
                    "indexed": true,
                    "internalType": "uint256",
                    "name": "roundId",
                    "type": "uint256"
                },
                {
                    "indexed": true,
                    "internalType": "bytes32",
                    "name": "identifier",
                    "type": "bytes32"
                },
                {
                    "indexed": false,
                    "internalType": "uint256",
                    "name": "time",
                    "type": "uint256"
                },
                {
                    "indexed": false,
                    "internalType": "int256",
                    "name": "price",
                    "type": "int256"
                },
                {
                    "indexed": false,
                    "internalType": "bytes",
                    "name": "ancillaryData",
                    "type": "bytes"
                }
            ],
            "name": "PriceResolved",
            "type": "event"
        },
        {
            "anonymous": false,
            "inputs": [
                {
                    "indexed": true,
                    "internalType": "address",
                    "name": "voter",
                    "type": "address"
                },
                {
                    "indexed": true,
                    "internalType": "uint256",
                    "name": "roundId",
                    "type": "uint256"
                },
                {
                    "indexed": true,
                    "internalType": "bytes32",
                    "name": "identifier",
                    "type": "bytes32"
                },
                {
                    "indexed": false,
                    "internalType": "uint256",
                    "name": "time",
                    "type": "uint256"
                },
                {
                    "indexed": false,
                    "internalType": "bytes",
                    "name": "ancillaryData",
                    "type": "bytes"
                },
                {
                    "indexed": false,
                    "internalType": "uint256",
                    "name": "numTokens",
                    "type": "uint256"
                }
            ],
            "name": "RewardsRetrieved",
            "type": "event"
        },
        {
            "anonymous": false,
            "inputs": [
                {
                    "indexed": true,
                    "internalType": "address",
                    "name": "voter",
                    "type": "address"
                },
                {
                    "indexed": true,
                    "internalType": "uint256",
                    "name": "roundId",
                    "type": "uint256"
                },
                {
                    "indexed": true,
                    "internalType": "bytes32",
                    "name": "identifier",
                    "type": "bytes32"
                },
                {
                    "indexed": false,
                    "internalType": "uint256",
                    "name": "time",
                    "type": "uint256"
                },
                {
                    "indexed": false,
                    "internalType": "bytes",
                    "name": "ancillaryData",
                    "type": "bytes"
                }
            ],
            "name": "VoteCommitted",
            "type": "event"
        },
        {
            "anonymous": false,
            "inputs": [
                {
                    "indexed": true,
                    "internalType": "address",
                    "name": "voter",
                    "type": "address"
                },
                {
                    "indexed": true,
                    "internalType": "uint256",
                    "name": "roundId",
                    "type": "uint256"
                },
                {
                    "indexed": true,
                    "internalType": "bytes32",
                    "name": "identifier",
                    "type": "bytes32"
                },
                {
                    "indexed": false,
                    "internalType": "uint256",
                    "name": "time",
                    "type": "uint256"
                },
                {
                    "indexed": false,
                    "internalType": "int256",
                    "name": "price",
                    "type": "int256"
                },
                {
                    "indexed": false,
                    "internalType": "bytes",
                    "name": "ancillaryData",
                    "type": "bytes"
                },
                {
                    "indexed": false,
                    "internalType": "uint256",
                    "name": "numTokens",
                    "type": "uint256"
                }
            ],
            "name": "VoteRevealed",
            "type": "event"
        },
        {
            "inputs": [],
            "name": "ancillaryBytesLimit",
            "outputs": [
                {
                    "internalType": "uint256",
                    "name": "",
                    "type": "uint256"
                }
            ],
            "stateMutability": "view",
            "type": "function"
        },
        {
            "inputs": [],
            "name": "gatPercentage",
            "outputs": [
                {
                    "internalType": "uint256",
                    "name": "rawValue",
                    "type": "uint256"
                }
            ],
            "stateMutability": "view",
            "type": "function"
        },
        {
            "inputs": [],
            "name": "getCurrentTime",
            "outputs": [
                {
                    "internalType": "uint256",
                    "name": "",
                    "type": "uint256"
                }
            ],
            "stateMutability": "view",
            "type": "function"
        },
        {
            "inputs": [],
            "name": "inflationRate",
            "outputs": [
                {
                    "internalType": "uint256",
                    "name": "rawValue",
                    "type": "uint256"
                }
            ],
            "stateMutability": "view",
            "type": "function"
        },
        {
            "inputs": [],
            "name": "migratedAddress",
            "outputs": [
                {
                    "internalType": "address",
                    "name": "",
                    "type": "address"
                }
            ],
            "stateMutability": "view",
            "type": "function"
        },
        {
            "inputs": [],
            "name": "owner",
            "outputs": [
                {
                    "internalType": "address",
                    "name": "",
                    "type": "address"
                }
            ],
            "stateMutability": "view",
            "type": "function"
        },
        {
            "inputs": [],
            "name": "renounceOwnership",
            "outputs": [],
            "stateMutability": "nonpayable",
            "type": "function"
        },
        {
            "inputs": [],
            "name": "rewardsExpirationTimeout",
            "outputs": [
                {
                    "internalType": "uint256",
                    "name": "",
                    "type": "uint256"
                }
            ],
            "stateMutability": "view",
            "type": "function"
        },
        {
            "inputs": [
                {
                    "internalType": "uint256",
                    "name": "",
                    "type": "uint256"
                }
            ],
            "name": "rounds",
            "outputs": [
                {
                    "internalType": "uint256",
                    "name": "snapshotId",
                    "type": "uint256"
                },
                {
                    "components": [
                        {
                            "internalType": "uint256",
                            "name": "rawValue",
                            "type": "uint256"
                        }
                    ],
                    "internalType": "struct FixedPoint.Unsigned",
                    "name": "inflationRate",
                    "type": "tuple"
                },
                {
                    "components": [
                        {
                            "internalType": "uint256",
                            "name": "rawValue",
                            "type": "uint256"
                        }
                    ],
                    "internalType": "struct FixedPoint.Unsigned",
                    "name": "gatPercentage",
                    "type": "tuple"
                },
                {
                    "internalType": "uint256",
                    "name": "rewardsExpirationTime",
                    "type": "uint256"
                }
            ],
            "stateMutability": "view",
            "type": "function"
        },
        {
            "inputs": [
                {
                    "internalType": "uint256",
                    "name": "time",
                    "type": "uint256"
                }
            ],
            "name": "setCurrentTime",
            "outputs": [],
            "stateMutability": "nonpayable",
            "type": "function"
        },
        {
            "inputs": [],
            "name": "snapshotMessageHash",
            "outputs": [
                {
                    "internalType": "bytes32",
                    "name": "",
                    "type": "bytes32"
                }
            ],
            "stateMutability": "view",
            "type": "function"
        },
        {
            "inputs": [],
            "name": "timerAddress",
            "outputs": [
                {
                    "internalType": "address",
                    "name": "",
                    "type": "address"
                }
            ],
            "stateMutability": "view",
            "type": "function"
        },
        {
            "inputs": [
                {
                    "internalType": "address",
                    "name": "newOwner",
                    "type": "address"
                }
            ],
            "name": "transferOwnership",
            "outputs": [],
            "stateMutability": "nonpayable",
            "type": "function"
        },
        {
            "inputs": [],
            "name": "voteTiming",
            "outputs": [
                {
                    "internalType": "uint256",
                    "name": "phaseLength",
                    "type": "uint256"
                }
            ],
            "stateMutability": "view",
            "type": "function"
        },
        {
            "inputs": [],
            "name": "votingToken",
            "outputs": [
                {
                    "internalType": "contract VotingToken",
                    "name": "",
                    "type": "address"
                }
            ],
            "stateMutability": "view",
            "type": "function"
        },
        {
            "inputs": [
                {
                    "internalType": "bytes32",
                    "name": "identifier",
                    "type": "bytes32"
                },
                {
                    "internalType": "uint256",
                    "name": "time",
                    "type": "uint256"
                },
                {
                    "internalType": "bytes",
                    "name": "ancillaryData",
                    "type": "bytes"
                }
            ],
            "name": "requestPrice",
            "outputs": [],
            "stateMutability": "nonpayable",
            "type": "function"
        },
        {
            "inputs": [
                {
                    "internalType": "bytes32",
                    "name": "identifier",
                    "type": "bytes32"
                },
                {
                    "internalType": "uint256",
                    "name": "time",
                    "type": "uint256"
                }
            ],
            "name": "requestPrice",
            "outputs": [],
            "stateMutability": "nonpayable",
            "type": "function"
        },
        {
            "inputs": [
                {
                    "internalType": "bytes32",
                    "name": "identifier",
                    "type": "bytes32"
                },
                {
                    "internalType": "uint256",
                    "name": "time",
                    "type": "uint256"
                }
            ],
            "name": "hasPrice",
            "outputs": [
                {
                    "internalType": "bool",
                    "name": "",
                    "type": "bool"
                }
            ],
            "stateMutability": "view",
            "type": "function"
        },
        {
            "inputs": [
                {
                    "internalType": "bytes32",
                    "name": "identifier",
                    "type": "bytes32"
                },
                {
                    "internalType": "uint256",
                    "name": "time",
                    "type": "uint256"
                },
                {
                    "internalType": "bytes",
                    "name": "ancillaryData",
                    "type": "bytes"
                }
            ],
            "name": "hasPrice",
            "outputs": [
                {
                    "internalType": "bool",
                    "name": "",
                    "type": "bool"
                }
            ],
            "stateMutability": "view",
            "type": "function"
        },
        {
            "inputs": [
                {
                    "internalType": "bytes32",
                    "name": "identifier",
                    "type": "bytes32"
                },
                {
                    "internalType": "uint256",
                    "name": "time",
                    "type": "uint256"
                },
                {
                    "internalType": "bytes",
                    "name": "ancillaryData",
                    "type": "bytes"
                }
            ],
            "name": "getPrice",
            "outputs": [
                {
                    "internalType": "int256",
                    "name": "",
                    "type": "int256"
                }
            ],
            "stateMutability": "view",
            "type": "function"
        },
        {
            "inputs": [
                {
                    "internalType": "bytes32",
                    "name": "identifier",
                    "type": "bytes32"
                },
                {
                    "internalType": "uint256",
                    "name": "time",
                    "type": "uint256"
                }
            ],
            "name": "getPrice",
            "outputs": [
                {
                    "internalType": "int256",
                    "name": "",
                    "type": "int256"
                }
            ],
            "stateMutability": "view",
            "type": "function"
        },
        {
            "inputs": [
                {
                    "components": [
                        {
                            "internalType": "bytes32",
                            "name": "identifier",
                            "type": "bytes32"
                        },
                        {
                            "internalType": "uint256",
                            "name": "time",
                            "type": "uint256"
                        },
                        {
                            "internalType": "bytes",
                            "name": "ancillaryData",
                            "type": "bytes"
                        }
                    ],
                    "internalType": "struct VotingAncillaryInterface.PendingRequestAncillary[]",
                    "name": "requests",
                    "type": "tuple[]"
                }
            ],
            "name": "getPriceRequestStatuses",
            "outputs": [
                {
                    "components": [
                        {
                            "internalType": "enum Voting.RequestStatus",
                            "name": "status",
                            "type": "uint8"
                        },
                        {
                            "internalType": "uint256",
                            "name": "lastVotingRound",
                            "type": "uint256"
                        }
                    ],
                    "internalType": "struct Voting.RequestState[]",
                    "name": "",
                    "type": "tuple[]"
                }
            ],
            "stateMutability": "view",
            "type": "function"
        },
        {
            "inputs": [
                {
                    "components": [
                        {
                            "internalType": "bytes32",
                            "name": "identifier",
                            "type": "bytes32"
                        },
                        {
                            "internalType": "uint256",
                            "name": "time",
                            "type": "uint256"
                        }
                    ],
                    "internalType": "struct VotingInterface.PendingRequest[]",
                    "name": "requests",
                    "type": "tuple[]"
                }
            ],
            "name": "getPriceRequestStatuses",
            "outputs": [
                {
                    "components": [
                        {
                            "internalType": "enum Voting.RequestStatus",
                            "name": "status",
                            "type": "uint8"
                        },
                        {
                            "internalType": "uint256",
                            "name": "lastVotingRound",
                            "type": "uint256"
                        }
                    ],
                    "internalType": "struct Voting.RequestState[]",
                    "name": "",
                    "type": "tuple[]"
                }
            ],
            "stateMutability": "view",
            "type": "function"
        },
        {
            "inputs": [
                {
                    "internalType": "bytes32",
                    "name": "identifier",
                    "type": "bytes32"
                },
                {
                    "internalType": "uint256",
                    "name": "time",
                    "type": "uint256"
                },
                {
                    "internalType": "bytes",
                    "name": "ancillaryData",
                    "type": "bytes"
                },
                {
                    "internalType": "bytes32",
                    "name": "hash",
                    "type": "bytes32"
                }
            ],
            "name": "commitVote",
            "outputs": [],
            "stateMutability": "nonpayable",
            "type": "function"
        },
        {
            "inputs": [
                {
                    "internalType": "bytes32",
                    "name": "identifier",
                    "type": "bytes32"
                },
                {
                    "internalType": "uint256",
                    "name": "time",
                    "type": "uint256"
                },
                {
                    "internalType": "bytes32",
                    "name": "hash",
                    "type": "bytes32"
                }
            ],
            "name": "commitVote",
            "outputs": [],
            "stateMutability": "nonpayable",
            "type": "function"
        },
        {
            "inputs": [
                {
                    "internalType": "bytes",
                    "name": "signature",
                    "type": "bytes"
                }
            ],
            "name": "snapshotCurrentRound",
            "outputs": [],
            "stateMutability": "nonpayable",
            "type": "function"
        },
        {
            "inputs": [
                {
                    "internalType": "bytes32",
                    "name": "identifier",
                    "type": "bytes32"
                },
                {
                    "internalType": "uint256",
                    "name": "time",
                    "type": "uint256"
                },
                {
                    "internalType": "int256",
                    "name": "price",
                    "type": "int256"
                },
                {
                    "internalType": "int256",
                    "name": "salt",
                    "type": "int256"
                }
            ],
            "name": "revealVote",
            "outputs": [],
            "stateMutability": "nonpayable",
            "type": "function"
        },
        {
            "inputs": [
                {
                    "internalType": "bytes32",
                    "name": "identifier",
                    "type": "bytes32"
                },
                {
                    "internalType": "uint256",
                    "name": "time",
                    "type": "uint256"
                },
                {
                    "internalType": "int256",
                    "name": "price",
                    "type": "int256"
                },
                {
                    "internalType": "bytes",
                    "name": "ancillaryData",
                    "type": "bytes"
                },
                {
                    "internalType": "int256",
                    "name": "salt",
                    "type": "int256"
                }
            ],
            "name": "revealVote",
            "outputs": [],
            "stateMutability": "nonpayable",
            "type": "function"
        },
        {
            "inputs": [
                {
                    "internalType": "bytes32",
                    "name": "identifier",
                    "type": "bytes32"
                },
                {
                    "internalType": "uint256",
                    "name": "time",
                    "type": "uint256"
                },
                {
                    "internalType": "bytes",
                    "name": "ancillaryData",
                    "type": "bytes"
                },
                {
                    "internalType": "bytes32",
                    "name": "hash",
                    "type": "bytes32"
                },
                {
                    "internalType": "bytes",
                    "name": "encryptedVote",
                    "type": "bytes"
                }
            ],
            "name": "commitAndEmitEncryptedVote",
            "outputs": [],
            "stateMutability": "nonpayable",
            "type": "function"
        },
        {
            "inputs": [
                {
                    "internalType": "bytes32",
                    "name": "identifier",
                    "type": "bytes32"
                },
                {
                    "internalType": "uint256",
                    "name": "time",
                    "type": "uint256"
                },
                {
                    "internalType": "bytes32",
                    "name": "hash",
                    "type": "bytes32"
                },
                {
                    "internalType": "bytes",
                    "name": "encryptedVote",
                    "type": "bytes"
                }
            ],
            "name": "commitAndEmitEncryptedVote",
            "outputs": [],
            "stateMutability": "nonpayable",
            "type": "function"
        },
        {
            "inputs": [
                {
                    "components": [
                        {
                            "internalType": "bytes32",
                            "name": "identifier",
                            "type": "bytes32"
                        },
                        {
                            "internalType": "uint256",
                            "name": "time",
                            "type": "uint256"
                        },
                        {
                            "internalType": "bytes",
                            "name": "ancillaryData",
                            "type": "bytes"
                        },
                        {
                            "internalType": "bytes32",
                            "name": "hash",
                            "type": "bytes32"
                        },
                        {
                            "internalType": "bytes",
                            "name": "encryptedVote",
                            "type": "bytes"
                        }
                    ],
                    "internalType": "struct VotingAncillaryInterface.CommitmentAncillary[]",
                    "name": "commits",
                    "type": "tuple[]"
                }
            ],
            "name": "batchCommit",
            "outputs": [],
            "stateMutability": "nonpayable",
            "type": "function"
        },
        {
            "inputs": [
                {
                    "components": [
                        {
                            "internalType": "bytes32",
                            "name": "identifier",
                            "type": "bytes32"
                        },
                        {
                            "internalType": "uint256",
                            "name": "time",
                            "type": "uint256"
                        },
                        {
                            "internalType": "bytes32",
                            "name": "hash",
                            "type": "bytes32"
                        },
                        {
                            "internalType": "bytes",
                            "name": "encryptedVote",
                            "type": "bytes"
                        }
                    ],
                    "internalType": "struct VotingInterface.Commitment[]",
                    "name": "commits",
                    "type": "tuple[]"
                }
            ],
            "name": "batchCommit",
            "outputs": [],
            "stateMutability": "nonpayable",
            "type": "function"
        },
        {
            "inputs": [
                {
                    "components": [
                        {
                            "internalType": "bytes32",
                            "name": "identifier",
                            "type": "bytes32"
                        },
                        {
                            "internalType": "uint256",
                            "name": "time",
                            "type": "uint256"
                        },
                        {
                            "internalType": "int256",
                            "name": "price",
                            "type": "int256"
                        },
                        {
                            "internalType": "int256",
                            "name": "salt",
                            "type": "int256"
                        }
                    ],
                    "internalType": "struct VotingInterface.Reveal[]",
                    "name": "reveals",
                    "type": "tuple[]"
                }
            ],
            "name": "batchReveal",
            "outputs": [],
            "stateMutability": "nonpayable",
            "type": "function"
        },
        {
            "inputs": [
                {
                    "components": [
                        {
                            "internalType": "bytes32",
                            "name": "identifier",
                            "type": "bytes32"
                        },
                        {
                            "internalType": "uint256",
                            "name": "time",
                            "type": "uint256"
                        },
                        {
                            "internalType": "int256",
                            "name": "price",
                            "type": "int256"
                        },
                        {
                            "internalType": "bytes",
                            "name": "ancillaryData",
                            "type": "bytes"
                        },
                        {
                            "internalType": "int256",
                            "name": "salt",
                            "type": "int256"
                        }
                    ],
                    "internalType": "struct VotingAncillaryInterface.RevealAncillary[]",
                    "name": "reveals",
                    "type": "tuple[]"
                }
            ],
            "name": "batchReveal",
            "outputs": [],
            "stateMutability": "nonpayable",
            "type": "function"
        },
        {
            "inputs": [
                {
                    "internalType": "address",
                    "name": "voterAddress",
                    "type": "address"
                },
                {
                    "internalType": "uint256",
                    "name": "roundId",
                    "type": "uint256"
                },
                {
                    "components": [
                        {
                            "internalType": "bytes32",
                            "name": "identifier",
                            "type": "bytes32"
                        },
                        {
                            "internalType": "uint256",
                            "name": "time",
                            "type": "uint256"
                        },
                        {
                            "internalType": "bytes",
                            "name": "ancillaryData",
                            "type": "bytes"
                        }
                    ],
                    "internalType": "struct VotingAncillaryInterface.PendingRequestAncillary[]",
                    "name": "toRetrieve",
                    "type": "tuple[]"
                }
            ],
            "name": "retrieveRewards",
            "outputs": [
                {
                    "components": [
                        {
                            "internalType": "uint256",
                            "name": "rawValue",
                            "type": "uint256"
                        }
                    ],
                    "internalType": "struct FixedPoint.Unsigned",
                    "name": "totalRewardToIssue",
                    "type": "tuple"
                }
            ],
            "stateMutability": "nonpayable",
            "type": "function"
        },
        {
            "inputs": [
                {
                    "internalType": "address",
                    "name": "voterAddress",
                    "type": "address"
                },
                {
                    "internalType": "uint256",
                    "name": "roundId",
                    "type": "uint256"
                },
                {
                    "components": [
                        {
                            "internalType": "bytes32",
                            "name": "identifier",
                            "type": "bytes32"
                        },
                        {
                            "internalType": "uint256",
                            "name": "time",
                            "type": "uint256"
                        }
                    ],
                    "internalType": "struct VotingInterface.PendingRequest[]",
                    "name": "toRetrieve",
                    "type": "tuple[]"
                }
            ],
            "name": "retrieveRewards",
            "outputs": [
                {
                    "components": [
                        {
                            "internalType": "uint256",
                            "name": "rawValue",
                            "type": "uint256"
                        }
                    ],
                    "internalType": "struct FixedPoint.Unsigned",
                    "name": "",
                    "type": "tuple"
                }
            ],
            "stateMutability": "nonpayable",
            "type": "function"
        },
        {
            "inputs": [],
            "name": "getPendingRequests",
            "outputs": [
                {
                    "components": [
                        {
                            "internalType": "bytes32",
                            "name": "identifier",
                            "type": "bytes32"
                        },
                        {
                            "internalType": "uint256",
                            "name": "time",
                            "type": "uint256"
                        },
                        {
                            "internalType": "bytes",
                            "name": "ancillaryData",
                            "type": "bytes"
                        }
                    ],
                    "internalType": "struct VotingAncillaryInterface.PendingRequestAncillary[]",
                    "name": "",
                    "type": "tuple[]"
                }
            ],
            "stateMutability": "view",
            "type": "function"
        },
        {
            "inputs": [],
            "name": "getVotePhase",
            "outputs": [
                {
                    "internalType": "enum VotingAncillaryInterface.Phase",
                    "name": "",
                    "type": "uint8"
                }
            ],
            "stateMutability": "view",
            "type": "function"
        },
        {
            "inputs": [],
            "name": "getCurrentRoundId",
            "outputs": [
                {
                    "internalType": "uint256",
                    "name": "",
                    "type": "uint256"
                }
            ],
            "stateMutability": "view",
            "type": "function"
        },
        {
            "inputs": [
                {
                    "internalType": "address",
                    "name": "newVotingAddress",
                    "type": "address"
                }
            ],
            "name": "setMigrated",
            "outputs": [],
            "stateMutability": "nonpayable",
            "type": "function"
        },
        {
            "inputs": [
                {
                    "components": [
                        {
                            "internalType": "uint256",
                            "name": "rawValue",
                            "type": "uint256"
                        }
                    ],
                    "internalType": "struct FixedPoint.Unsigned",
                    "name": "newInflationRate",
                    "type": "tuple"
                }
            ],
            "name": "setInflationRate",
            "outputs": [],
            "stateMutability": "nonpayable",
            "type": "function"
        },
        {
            "inputs": [
                {
                    "components": [
                        {
                            "internalType": "uint256",
                            "name": "rawValue",
                            "type": "uint256"
                        }
                    ],
                    "internalType": "struct FixedPoint.Unsigned",
                    "name": "newGatPercentage",
                    "type": "tuple"
                }
            ],
            "name": "setGatPercentage",
            "outputs": [],
            "stateMutability": "nonpayable",
            "type": "function"
        },
        {
            "inputs": [
                {
                    "internalType": "uint256",
                    "name": "NewRewardsExpirationTimeout",
                    "type": "uint256"
                }
            ],
            "name": "setRewardsExpirationTimeout",
            "outputs": [],
            "stateMutability": "nonpayable",
            "type": "function"
        }
    ],
    "bytecode": "0x60c060405260116080527014da59db88119bdc8814db985c1cda1bdd607a1b60a052620000587f05ae8dd7e03a2a2e45343dbd50fe048482c1d0e0e9e034857ff13dd19f476b7e620001a0602090811b620026ed17901c565b600c553480156200006857600080fd5b5060405162004cd938038062004cd98339810160408190526200008b91620002f2565b600080546001600160a01b0319166001600160a01b038316178155620000b0620001d2565b600180546001600160a01b0319166001600160a01b038316908117909155604051919250906000907f8be0079c531659141344cd1fd0a4f28419497f9722a3daafe3b4186f6b6457e0908290a35062000119876005620001d660201b6200271d1790919060201c565b62000134600187620001e860201b6200272e1790919060201c565b6200015c5760405162461bcd60e51b81526004016200015390620003aa565b60405180910390fd5b5093516006559151600755600980546001600160a01b039384166001600160a01b031991821617909155600a80549490931693169290921790556008555062000422565b600081604051602001620001b5919062000379565b604051602081830303815290604052805190602001209050919050565b3390565b60008111620001e457600080fd5b9055565b6000620001f58262000203565b518351111590505b92915050565b6200020d62000289565b60405180602001604052806200023a670de0b6b3a7640000856200024260201b620027461790919060201c565b905292915050565b6000826200025357506000620001fd565b828202828482816200026157fe5b0414620002825760405162461bcd60e51b81526004016200015390620003e1565b9392505050565b6040518060200160405280600081525090565b80516001600160a01b0381168114620001fd57600080fd5b600060208284031215620002c6578081fd5b604051602081016001600160401b0381118282101715620002e5578283fd5b6040529151825250919050565b600080600080600080600060e0888a0312156200030d578283fd5b87519650620003208960208a01620002b4565b9550620003318960408a01620002b4565b945060608801519350620003498960808a016200029c565b92506200035a8960a08a016200029c565b91506200036b8960c08a016200029c565b905092959891949750929550565b7f19457468657265756d205369676e6564204d6573736167653a0a3332000000008152601c810191909152603c0190565b6020808252601e908201527f4741542070657263656e74616765206d757374206265203c3d20313030250000604082015260600190565b60208082526021908201527f536166654d6174683a206d756c7469706c69636174696f6e206f766572666c6f6040820152607760f81b606082015260800190565b6148a780620004326000396000f3fe608060405234801561001057600080fd5b50600436106102695760003560e01c806370a0cf2c116101515780638da5cb5b116100c3578063b551cd5011610087578063b551cd5014610514578063b90fd48014610527578063c371dda71461052f578063c9280f0614610537578063d8651ad01461054a578063f2fde38b1461055d57610269565b80638da5cb5b146104be578063a03e881a146104c6578063a65d1591146104e6578063add2ccb4146104f9578063b03401231461050c57610269565b806380a1f7121161011557806380a1f7121461043a57806383c6aaca1461044f5780638558d4f3146104625780638876e8a014610475578063894fcecc146104885780638c65c81f1461049b57610269565b806370a0cf2c146103ef578063715018a614610402578063719c6d561461040a57806371b7db531461041d57806374dd278c1461042557610269565b80632960b5af116101ea578063498ec3c9116101ae578063498ec3c91461037b5780634c7a26031461039b5780635727e25d146103ae5780636852eea0146103b657806368ad8ae3146103c95780636ec1fd5d146103dc57610269565b80632960b5af1461033d57806329cb924d1461035057806331f9e35b146103585780634000851f146103605780634666cb0c1461036857610269565b80631c39c38d116102315780631c39c38d146102e557806320b373a2146102fa578063216666a41461030f57806322f8e5661461032257806326af73bf1461033557610269565b8063017e4c031461026e5780630d434e7e14610297578063110d559a146102aa57806313e56d6a146102bf57806316d32474146102d2575b600080fd5b61028161027c3660046136ae565b610570565b60405161028e919061467c565b60405180910390f35b6102816102a5366004613704565b610b44565b6102bd6102b8366004613d62565b610c5e565b005b6102bd6102cd366004613dce565b610d58565b6102bd6102e0366004613c55565b610dba565b6102ed610e24565b60405161028e9190613ed9565b610302610e33565b60405161028e9190613fd8565b6102bd61031d366004613bbd565b610e39565b6102bd610330366004613df3565b6111da565b610302611254565b6102bd61034b366004613676565b61125a565b6103026112b1565b610302611354565b6102ed61135a565b6102bd610376366004613b66565b611369565b61038e610389366004613923565b6113a0565b60405161028e9190613f74565b6102bd6103a9366004613d31565b611504565b610302611520565b6102bd6103c4366004613a5d565b611532565b6102bd6103d7366004613b1a565b6116a4565b6102bd6103ea366004613750565b6116be565b6102bd6103fd366004613853565b6117e0565b6102bd61194e565b610302610418366004613bbd565b6119cd565b610302611b7b565b61042d611b81565b60405161028e919061401e565b610442611b96565b60405161028e9190613f06565b6102bd61045d366004613dce565b611df4565b61038e610470366004613955565b611e2f565b6102bd610483366004613df3565b611f3e565b6102bd610496366004613c00565b611f78565b6104ae6104a9366004613df3565b6120c0565b60405161028e94939291906147c1565b6102ed6120fa565b6104d96104d4366004613b1a565b612109565b60405161028e9190613fcd565b6102bd6104f4366004613987565b61212e565b6102bd610507366004613cd2565b6121c2565b6102ed61243d565b6104d9610522366004613bbd565b61244c565b6103026125c5565b6103026125cb565b610302610545366004613b1a565b6125d1565b6102bd610558366004613b3b565b6125ed565b6102bd61056b366004613676565b612636565b610578613347565b600b546001600160a01b0316156105bc57600b546001600160a01b031633146105bc5760405162461bcd60e51b81526004016105b3906141e0565b60405180910390fd5b6105cf6105c76112b1565b600590612780565b83106105ed5760405162461bcd60e51b81526004016105b390614217565b6000838152600260205260408120600381015490919061060b6112b1565b119050610616613347565b604080516020810191829052600954855463277166bf60e11b909352909182916001600160a01b031690634ee2cd7e90610655908c9060248601613eed565b60206040518083038186803b15801561066d57600080fd5b505afa158015610681573d6000803e3d6000fd5b505050506040513d601f19601f820116820180604052508101906106a59190613e0b565b905290506106b1613347565b6040805160208101918290526009548654630981b24d60e41b909352909182916001600160a01b03169063981b24d0906106ee9060248501613fd8565b60206040518083038186803b15801561070657600080fd5b505afa15801561071a573d6000803e3d6000fd5b505050506040513d601f19601f8201168201806040525081019061073e9190613e0b565b9052905061074a613347565b60408051602081019091526001860154815261076690836127a5565b905060405180602001604052806000815250955060005b8751811015610a865760006107d889838151811061079757fe5b6020026020010151600001518a84815181106107af57fe5b6020026020010151602001518b85815181106107c757fe5b6020026020010151604001516127e2565b6003810154600081815260028301602052604090209192508b1461080e5760405162461bcd60e51b81526004016105b3906145d7565b610818828261280a565b6001600160a01b038c1660009081526020829052604090206001015461083f575050610a7e565b86156108d75789838151811061085157fe5b6020026020010151600001518b8d6001600160a01b03167f6fb9765a6e4b0dd2aaedad44f9b165a2a64a53ce67a6ec812075faa9220d41bc8d878151811061089557fe5b6020026020010151602001518e88815181106108ad57fe5b60200260200101516040015160006040516108ca939291906146ca565b60405180910390a4610a5f565b6001600160a01b038c16600090815260208290526040902060019081015461090191830190612950565b156109d15761090e613347565b61092d61091d83600101612987565b61092789886127a5565b906129b3565b90506109398a826129f1565b99508a848151811061094757fe5b6020026020010151600001518c8e6001600160a01b03167f6fb9765a6e4b0dd2aaedad44f9b165a2a64a53ce67a6ec812075faa9220d41bc8e888151811061098b57fe5b6020026020010151602001518f89815181106109a357fe5b60200260200101516040015186600001516040516109c3939291906146ca565b60405180910390a450610a5f565b8983815181106109dd57fe5b6020026020010151600001518b8d6001600160a01b03167f6fb9765a6e4b0dd2aaedad44f9b165a2a64a53ce67a6ec812075faa9220d41bc8d8781518110610a2157fe5b6020026020010151602001518e8881518110610a3957fe5b6020026020010151604001516000604051610a56939291906146ca565b60405180910390a45b6001600160a01b038c1660009081526020919091526040812060010155505b60010161077d565b50610a92866000612a14565b15610b385760095486516040516340c10f1960e01b81526001600160a01b03909216916340c10f1991610aca918d9190600401613eed565b602060405180830381600087803b158015610ae457600080fd5b505af1158015610af8573d6000803e3d6000fd5b505050506040513d601f19601f82011682018060405250810190610b1c9190613afa565b610b385760405162461bcd60e51b81526004016105b3906143cd565b50505050509392505050565b610b4c613347565b606082516001600160401b0381118015610b6557600080fd5b50604051908082528060200260200182016040528015610b9f57816020015b610b8c61335a565b815260200190600190039081610b845790505b50905060005b8351811015610c4957838181518110610bba57fe5b602002602001015160000151828281518110610bd257fe5b60200260200101516000018181525050838181518110610bee57fe5b602002602001015160200151828281518110610c0657fe5b6020026020010151602001818152505060405180602001604052806000815250828281518110610c3257fe5b602090810291909101015160400152600101610ba5565b50610c55858583610570565b95945050505050565b600b546001600160a01b031615610c875760405162461bcd60e51b81526004016105b390614571565b6000610c916112b1565b90506001610ca0600583612a2b565b6002811115610cab57fe5b14610cc85760405162461bcd60e51b81526004016105b39061460e565b336001600160a01b0316610d14600c5485858080601f016020809104026020016040519081016040528093929190818152602001838380828437600092019190915250612a5092505050565b6001600160a01b031614610d3a5760405162461bcd60e51b81526004016105b390614396565b6000610d47600583612780565b9050610d5281612b7e565b50505050565b610d60612c69565b6001546001600160a01b03908116911614610d8d5760405162461bcd60e51b81526004016105b39061432a565b610d98816001612c6d565b610db45760405162461bcd60e51b81526004016105b390614497565b51600655565b610dc685858585611f78565b6000610dd36105c76112b1565b90508581336001600160a01b03167f0296c44e55ad4a025c9701a71c746d4275d63dfe301e390a7429551010a8fea1888887604051610e149392919061469f565b60405180910390a4505050505050565b6000546001600160a01b031681565b600c5481565b600b546001600160a01b031615610e7957600b546001600160a01b03163314610e745760405162461bcd60e51b81526004016105b390614645565b610fa2565b600a546040516302abf57960e61b81526000916001600160a01b03169063aafd5e4090610eb59067526567697374727960c01b90600401613fd8565b60206040518083038186803b158015610ecd57600080fd5b505afa158015610ee1573d6000803e3d6000fd5b505050506040513d601f19601f82011682018060405250810190610f059190613692565b60405163f9f6b49b60e01b81529091506001600160a01b0382169063f9f6b49b90610f34903390600401613ed9565b60206040518083038186803b158015610f4c57600080fd5b505afa158015610f60573d6000803e3d6000fd5b505050506040513d601f19601f82011682018060405250810190610f849190613afa565b610fa05760405162461bcd60e51b81526004016105b390614503565b505b6000610fac6112b1565b905080831115610fce5760405162461bcd60e51b81526004016105b390614460565b610fd6612c84565b6001600160a01b03166390978d1b856040518263ffffffff1660e01b81526004016110019190613fd8565b60206040518083038186803b15801561101957600080fd5b505afa15801561102d573d6000803e3d6000fd5b505050506040513d601f19601f820116820180604052508101906110519190613afa565b61106d5760405162461bcd60e51b81526004016105b3906142b2565b612000825111156110905760405162461bcd60e51b81526004016105b390614282565b600061109d858585612d1b565b60008181526003602052604081209192506110b9600585612780565b905060006110c78383612d51565b905060008160038111156110d757fe5b14156111d05760006110ea836001612dd8565b6040805160a0810182528b815260208082018c81528284018581526004805460608601908152608086018f815260008e81526003808852989020875181559451600186015592519684019690965594519482019490945592518051949550919361115a9260058501920190613379565b5050600480546001810182556000919091527f8a35acfbc15ff81a39ae7d344fd709f28e8600b4aa8c65c6b64bfe7fe36bd19b0186905550604051899082907f5d80f93c41e95cacea0b9ce9bb825092d709fa503a70bb26ea3f536bf16946bd906111c6908c90613fd8565b60405180910390a3505b5050505050505050565b6000546001600160a01b03166111ef57600080fd5b60005460405163117c72b360e11b81526001600160a01b03909116906322f8e5669061121f908490600401613fd8565b600060405180830381600087803b15801561123957600080fd5b505af115801561124d573d6000803e3d6000fd5b5050505050565b60085481565b611262612c69565b6001546001600160a01b0390811691161461128f5760405162461bcd60e51b81526004016105b39061432a565b600b80546001600160a01b0319166001600160a01b0392909216919091179055565b600080546001600160a01b03161561134e5760008054906101000a90046001600160a01b03166001600160a01b03166329cb924d6040518163ffffffff1660e01b815260040160206040518083038186803b15801561130f57600080fd5b505afa158015611323573d6000803e3d6000fd5b505050506040513d601f19601f820116820180604052508101906113479190613e0b565b9050611351565b50425b90565b60075481565b600b546001600160a01b031681565b61138484846040518060200160405280600081525085611f78565b610d528484604051806020016040528060008152508585610dba565b60608082516001600160401b03811180156113ba57600080fd5b506040519080825280602002602001820160405280156113f457816020015b6113e16133f7565b8152602001906001900390816113d95790505b50905060006114046105c76112b1565b905060005b84518110156114f957600061145386838151811061142357fe5b60200260200101516000015187848151811061143b57fe5b6020026020010151602001518885815181106107c757fe5b905060006114618285612d51565b9050600181600381111561147157fe5b1415611499578385848151811061148457fe5b602002602001015160200181815250506114bb565b81600301548584815181106114aa57fe5b602002602001015160200181815250505b808584815181106114c857fe5b60200260200101516000019060038111156114df57fe5b908160038111156114ec57fe5b9052505050600101611409565b50909150505b919050565b610d5284848460405180602001604052806000815250856121c2565b600061152d6105c76112b1565b905090565b606081516001600160401b038111801561154b57600080fd5b5060405190808252806020026020018201604052801561158557816020015b61157261340e565b81526020019060019003908161156a5790505b50905060005b8251811015611696578281815181106115a057fe5b6020026020010151600001518282815181106115b857fe5b602002602001015160000181815250508281815181106115d457fe5b6020026020010151602001518282815181106115ec57fe5b6020026020010151602001818152505082818151811061160857fe5b60200260200101516040015182828151811061162057fe5b602002602001015160400181815250506040518060200160405280600081525082828151811061164c57fe5b60200260200101516060018190525082818151811061166757fe5b60200260200101516060015182828151811061167f57fe5b60209081029190910101516080015260010161158b565b506116a08161212e565b5050565b6116a0828260405180602001604052806000815250610e39565b60005b81518110156116a0578181815181106116d657fe5b6020026020010151608001515160001415611758576117538282815181106116fa57fe5b60200260200101516000015183838151811061171257fe5b60200260200101516020015184848151811061172a57fe5b60200260200101516040015185858151811061174257fe5b602002602001015160600151611f78565b6117d8565b6117d882828151811061176757fe5b60200260200101516000015183838151811061177f57fe5b60200260200101516020015184848151811061179757fe5b6020026020010151604001518585815181106117af57fe5b6020026020010151606001518686815181106117c757fe5b602002602001015160800151610dba565b6001016116c1565b606081516001600160401b03811180156117f957600080fd5b5060405190808252806020026020018201604052801561183357816020015b611820613440565b8152602001906001900390816118185790505b50905060005b82518110156119445782818151811061184e57fe5b60200260200101516000015182828151811061186657fe5b6020026020010151600001818152505082818151811061188257fe5b60200260200101516020015182828151811061189a57fe5b60200260200101516020018181525050604051806020016040528060008152508282815181106118c657fe5b6020026020010151604001819052508281815181106118e157fe5b6020026020010151604001518282815181106118f957fe5b6020026020010151606001818152505082818151811061191557fe5b60200260200101516060015182828151811061192d57fe5b602090810291909101015160800152600101611839565b506116a0816116be565b611956612c69565b6001546001600160a01b039081169116146119835760405162461bcd60e51b81526004016105b39061432a565b6001546040516000916001600160a01b0316907f8be0079c531659141344cd1fd0a4f28419497f9722a3daafe3b4186f6b6457e0908390a3600180546001600160a01b0319169055565b600b546000906001600160a01b031615611a1057600b546001600160a01b03163314611a0b5760405162461bcd60e51b81526004016105b390614645565b611b39565b600a546040516302abf57960e61b81526000916001600160a01b03169063aafd5e4090611a4c9067526567697374727960c01b90600401613fd8565b60206040518083038186803b158015611a6457600080fd5b505afa158015611a78573d6000803e3d6000fd5b505050506040513d601f19601f82011682018060405250810190611a9c9190613692565b60405163f9f6b49b60e01b81529091506001600160a01b0382169063f9f6b49b90611acb903390600401613ed9565b60206040518083038186803b158015611ae357600080fd5b505afa158015611af7573d6000803e3d6000fd5b505050506040513d601f19601f82011682018060405250810190611b1b9190613afa565b611b375760405162461bcd60e51b81526004016105b390614503565b505b6000806060611b49878787612dfd565b925092509250828190611b6f5760405162461bcd60e51b81526004016105b39190614032565b50909695505050505050565b60055481565b600061152d611b8e6112b1565b600590612a2b565b60606000611ba26112b1565b90506000611bb1600583612780565b6004549091506060906001600160401b0381118015611bcf57600080fd5b50604051908082528060200260200182016040528015611c0957816020015b611bf661335a565b815260200190600190039081611bee5790505b5090506000805b600454811015611d565760006003600060048481548110611c2d57fe5b90600052602060002001548152602001908152602001600020905060016003811115611c5557fe5b611c5f8287612d51565b6003811115611c6a57fe5b1415611d4d5760405180606001604052808260000154815260200182600101548152602001826005018054600181600116156101000203166002900480601f016020809104026020016040519081016040528092919081815260200182805460018160011615610100020316600290048015611d275780601f10611cfc57610100808354040283529160200191611d27565b820191906000526020600020905b815481529060010190602001808311611d0a57829003601f168201915b5050505050815250848481518110611d3b57fe5b60209081029190910101526001909201915b50600101611c10565b506060816001600160401b0381118015611d6f57600080fd5b50604051908082528060200260200182016040528015611da957816020015b611d9661335a565b815260200190600190039081611d8e5790505b50905060005b82811015611dea57838181518110611dc357fe5b6020026020010151828281518110611dd757fe5b6020908102919091010152600101611daf565b5094505050505090565b611dfc612c69565b6001546001600160a01b03908116911614611e295760405162461bcd60e51b81526004016105b39061432a565b51600755565b60608082516001600160401b0381118015611e4957600080fd5b50604051908082528060200260200182016040528015611e8357816020015b611e7061335a565b815260200190600190039081611e685790505b50905060005b8351811015611f2d57838181518110611e9e57fe5b602002602001015160000151828281518110611eb657fe5b60200260200101516000018181525050838181518110611ed257fe5b602002602001015160200151828281518110611eea57fe5b6020026020010151602001818152505060405180602001604052806000815250828281518110611f1657fe5b602090810291909101015160400152600101611e89565b50611f37816113a0565b9392505050565b611f46612c69565b6001546001600160a01b03908116911614611f735760405162461bcd60e51b81526004016105b39061432a565b600855565b600b546001600160a01b031615611fa15760405162461bcd60e51b81526004016105b390614571565b80611fbe5760405162461bcd60e51b81526004016105b390614404565b6000611fc86112b1565b90506000611fd7600583612a2b565b6002811115611fe257fe5b14611fff5760405162461bcd60e51b81526004016105b39061453a565b600061200c600583612780565b9050600061201b8787876127e2565b905060016120298284612d51565b600381111561203457fe5b146120515760405162461bcd60e51b81526004016105b39061435f565b600381018290556000828152600282016020908152604080832033808552928190529281902087905551899185917f6beca723245953d9ed92ae4d320d4772838e841161bfff12c78ae4268df525eb906120ae908c908c90614686565b60405180910390a45050505050505050565b6002602081815260009283526040928390208054845180840186526001830154815285519384019095529281015482526003015491929184565b6001546001600160a01b031690565b600061212583836040518060200160405280600081525061244c565b90505b92915050565b60005b81518110156116a0576121ba82828151811061214957fe5b60200260200101516000015183838151811061216157fe5b60200260200101516020015184848151811061217957fe5b60200260200101516040015185858151811061219157fe5b6020026020010151606001518686815181106121a957fe5b6020026020010151608001516121c2565b600101612131565b600b546001600160a01b0316156121eb5760405162461bcd60e51b81526004016105b390614571565b60016121f8611b8e6112b1565b600281111561220357fe5b146122205760405162461bcd60e51b81526004016105b390614167565b600061222d6105c76112b1565b9050600061223c8787866127e2565b60008381526002820160209081526040808320338452918290529091208054929350909161227c5760405162461bcd60e51b81526004016105b390614433565b80600001548786338b8a898f60405160200161229e9796959493929190613e4f565b60405160208183030381529060405280519060200120146122d15760405162461bcd60e51b81526004016105b3906140b3565b6000848152600260205260409020546122fc5760405162461bcd60e51b81526004016105b3906145a8565b600084815260026020526040812054908255612316613347565b60408051602081019182905260095463277166bf60e11b9092529081906001600160a01b0316634ee2cd7e61234f338760248601613eed565b60206040518083038186803b15801561236757600080fd5b505afa15801561237b573d6000803e3d6000fd5b505050506040513d601f19601f8201168201806040525081019061239f9190613e0b565b8152509050886040516020016123b59190613fd8565b60408051601f1981840301815291905280516020909101206001808501919091556123e39085018a83612f8b565b8a86336001600160a01b03167f3fad5d37ee1be2f58ff1735699121a8ead73c3b70d02fc06d07b0db29854d3b48d8d8d876000015160405161242894939291906146f3565b60405180910390a45050505050505050505050565b6009546001600160a01b031681565b600b546000906001600160a01b03161561248f57600b546001600160a01b0316331461248a5760405162461bcd60e51b81526004016105b390614645565b6125b8565b600a546040516302abf57960e61b81526000916001600160a01b03169063aafd5e40906124cb9067526567697374727960c01b90600401613fd8565b60206040518083038186803b1580156124e357600080fd5b505afa1580156124f7573d6000803e3d6000fd5b505050506040513d601f19601f8201168201806040525081019061251b9190613692565b60405163f9f6b49b60e01b81529091506001600160a01b0382169063f9f6b49b9061254a903390600401613ed9565b60206040518083038186803b15801561256257600080fd5b505afa158015612576573d6000803e3d6000fd5b505050506040513d601f19601f8201168201806040525081019061259a9190613afa565b6125b65760405162461bcd60e51b81526004016105b390614503565b505b6000611b6f858585612dfd565b60065481565b61200081565b60006121258383604051806020016040528060008152506119cd565b600b546001600160a01b0316156126165760405162461bcd60e51b81526004016105b390614571565b61263183836040518060200160405280600081525084611f78565b505050565b61263e612c69565b6001546001600160a01b0390811691161461266b5760405162461bcd60e51b81526004016105b39061432a565b6001600160a01b0381166126915760405162461bcd60e51b81526004016105b3906140ea565b6001546040516001600160a01b038084169216907f8be0079c531659141344cd1fd0a4f28419497f9722a3daafe3b4186f6b6457e090600090a3600180546001600160a01b0319166001600160a01b0392909216919091179055565b6000816040516020016127009190613ea8565b604051602081830303815290604052805190602001209050919050565b6000811161272a57600080fd5b9055565b600061273982613040565b5183511115905092915050565b60008261275557506000612128565b8282028284828161276257fe5b04146121255760405162461bcd60e51b81526004016105b3906142e9565b60008061279160025b855490612746565b905061279d838261306e565b949350505050565b6127ad613347565b6040805160208101909152825184518291670de0b6b3a7640000916127d191612746565b816127d857fe5b0490529392505050565b6000600360006127f3868686612d1b565b815260200190815260200160002090509392505050565b6004820154600019141561281d576116a0565b60008061283a61283085600301546130b0565b60018501906131a2565b915091508161285b5760405162461bcd60e51b81526004016105b3906144ce565b6004805460001981019160009160039183918590811061287757fe5b90600052602060002001548152602001908152602001600020905085600401548160040181905550600482815481106128ac57fe5b906000526020600020015460048760040154815481106128c857fe5b60009182526020909120015560048054806128df57fe5b60008281526020812082016000199081019190915590810190915560048701558554600387015460018801546040517fb1f1bf5aec084730c2c09f66ae2099185eaf6f951ddc113a19aa886a9f5e71b79161294091889060058d0190614723565b60405180910390a3505050505050565b600082600201546040516020016129679190613fd8565b604051602081830303815290604052805190602001208214905092915050565b61298f613347565b50600281015460009081526020918252604090819020815192830190915254815290565b6129bb613347565b60408051602081019091528251845182916129e8916129e290670de0b6b3a7640000612746565b9061306e565b90529392505050565b6129f9613347565b60408051602081019091528251845182916129e89190612dd8565b6000612a1f82613040565b51835111905092915050565b6000612a4560028454612a3f90859061306e565b9061324e565b600281111561212557fe5b60008151604114612a735760405162461bcd60e51b81526004016105b39061407c565b60208201516040830151606084015160001a7f7fffffffffffffffffffffffffffffff5d576e7357a4501ddfe92f46681b20a0821115612ac55760405162461bcd60e51b81526004016105b39061419e565b8060ff16601b14158015612add57508060ff16601c14155b15612afa5760405162461bcd60e51b81526004016105b390614240565b600060018783868660405160008152602001604052604051612b1f9493929190614000565b6020604051602081039080840390855afa158015612b41573d6000803e3d6000fd5b5050604051601f1901519150506001600160a01b038116612b745760405162461bcd60e51b81526004016105b390614045565b9695505050505050565b600081815260026020526040902080546116a057600960009054906101000a90046001600160a01b03166001600160a01b0316639711715a6040518163ffffffff1660e01b8152600401602060405180830381600087803b158015612be257600080fd5b505af1158015612bf6573d6000803e3d6000fd5b505050506040513d601f19601f82011682018060405250810190612c1a9190613e0b565b815560008281526002602081905260409091206007546001820155600654910155600854612c5390612c4d600585613290565b90612dd8565b6000838152600260205260409020600301555050565b3390565b6000612c7882613040565b51835110905092915050565b600a546040516302abf57960e61b81526000916001600160a01b03169063aafd5e4090612ccb90721259195b9d1a599a595c95da1a5d195b1a5cdd606a1b90600401613fd8565b60206040518083038186803b158015612ce357600080fd5b505afa158015612cf7573d6000803e3d6000fd5b505050506040513d601f19601f8201168201806040525081019061152d9190613692565b6000838383604051602001612d3293929190613fe1565b6040516020818303038152906040528051906020012090509392505050565b6000826003015460001415612d6857506000612128565b8183600301541015612dbc5760038301546000818152600285016020526040812091612da190612d97906130b0565b60018401906131a2565b50905080612db0576001612db3565b60025b92505050612128565b8183600301541415612dd057506001612128565b506003612128565b6000828201838110156121255760405162461bcd60e51b81526004016105b390614130565b60008060606000612e0f8787876127e2565b90506000612e1e6105c76112b1565b90506000612e2c8383612d51565b90506001816003811115612e3c57fe5b1415612e89576000806040518060400160405280601e81526020017f43757272656e7420766f74696e6720726f756e64206e6f7420656e6465640000815250955095509550505050612f82565b6002816003811115612e9757fe5b1415612ee45760038301546000818152600285016020526040812091612ec090612d97906130b0565b60408051602081019091526000815260019a509098509650612f8295505050505050565b6003816003811115612ef257fe5b1415612f3f576000806040518060400160405280601d81526020017f5072696365206973207374696c6c20746f20626520766f746564206f6e000000815250955095509550505050612f82565b6000806040518060400160405280601981526020017f507269636520776173206e6576657220726571756573746564000000000000008152509550955095505050505b93509350939050565b604080516020810190915260018401548152612fa790826129f1565b51600184015560008281526020848152604091829020825191820190925290548152612fd390826129f1565b60008381526020859052604090209051905560028301548214801590613031575060028301546000908152602084815260408083208151808401835290548152858452868352928190208151928301909152548152613031916132b4565b15612631575060029190910155565b613048613347565b60408051602081019091528061306684670de0b6b3a7640000612746565b905292915050565b600061212583836040518060400160405280601a81526020017f536166654d6174683a206469766973696f6e206279207a65726f0000000000008152506132bb565b6130b8613347565b600082815260026020526040902054806130e3575050604080516020810190915260001981526114ff565b6130eb613347565b604080516020810191829052600954630981b24d60e41b9092529081906001600160a01b031663981b24d06131238660248501613fd8565b60206040518083038186803b15801561313b57600080fd5b505afa15801561314f573d6000803e3d6000fd5b505050506040513d601f19601f820116820180604052508101906131739190613e0b565b90526000858152600260208181526040928390208351918201909352910154815290915061279d9082906127a5565b6000806131ad613347565b6131c260646131bc6032613040565b906132f2565b6040805160208101909152600187015481529091506131e190856132b4565b801561322c57506040805160208082018352600188015482526002880154600090815288825283902083519182019093529154825261322c91839161322691906129b3565b906132b4565b15613241576001925084600201549150613246565b600092505b509250929050565b600061212583836040518060400160405280601881526020017f536166654d6174683a206d6f64756c6f206279207a65726f0000000000000000815250613313565b60008061329d6002612789565b905061279d6132ad846001612dd8565b8290612746565b5190511190565b600081836132dc5760405162461bcd60e51b81526004016105b39190614032565b5060008385816132e857fe5b0495945050505050565b6132fa613347565b6040805160208101909152835181906129e8908561306e565b600081836133345760405162461bcd60e51b81526004016105b39190614032565b5082848161333e57fe5b06949350505050565b6040518060200160405280600081525090565b6040805160608082018352600080835260208301529181019190915290565b828054600181600116156101000203166002900490600052602060002090601f016020900481019282601f106133ba57805160ff19168380011785556133e7565b828001600101855582156133e7579182015b828111156133e75782518255916020019190600101906133cc565b506133f392915061346d565b5090565b604080518082019091526000808252602082015290565b6040518060a0016040528060008019168152602001600081526020016000815260200160608152602001600081525090565b6040805160a081018252600080825260208201819052606092820183905282820152608081019190915290565b5b808211156133f3576000815560010161346e565b600082601f830112613492578081fd5b81356134a56134a082614802565b6147dc565b818152915060208083019084810160005b8481101561352f5781358701606080601f19838c030112156134d757600080fd5b6134e0816147dc565b8286013581526040808401358288015291830135916001600160401b0383111561350957600080fd5b6135178c88858701016135c9565b908201528652505092820192908201906001016134b6565b505050505092915050565b600082601f83011261354a578081fd5b81356135586134a082614802565b818152915060208083019084810160408085028701830188101561357b57600080fd5b6000805b868110156135bc5782848b031215613595578182fd5b61359e836147dc565b8435815285850135868201528652948401949282019260010161357f565b5050505050505092915050565b600082601f8301126135d9578081fd5b81356001600160401b038111156135ee578182fd5b613601601f8201601f19166020016147dc565b915080825283602082850101111561361857600080fd5b8060208401602084013760009082016020015292915050565b600060808284031215613642578081fd5b61364c60806147dc565b90508135815260208201356020820152604082013560408201526060820135606082015292915050565b600060208284031215613687578081fd5b813561212581614859565b6000602082840312156136a3578081fd5b815161212581614859565b6000806000606084860312156136c2578182fd5b83356136cd81614859565b92506020840135915060408401356001600160401b038111156136ee578182fd5b6136fa86828701613482565b9150509250925092565b600080600060608486031215613718578081fd5b833561372381614859565b92506020840135915060408401356001600160401b03811115613744578182fd5b6136fa8682870161353a565b60006020808385031215613762578182fd5b82356001600160401b0380821115613778578384fd5b818501915085601f83011261378b578384fd5b81356137996134a082614802565b81815284810190848601875b84811015613844578135870160a080601f19838f030112156137c5578a8bfd5b6137ce816147dc565b8a830135815260408301358b8201526060830135898111156137ee578c8dfd5b6137fc8f8d838701016135c9565b6040830152506080830135606082015290820135908882111561381d578b8cfd5b61382b8e8c848601016135c9565b60808201528652505092870192908701906001016137a5565b50909998505050505050505050565b60006020808385031215613865578182fd5b82356001600160401b038082111561387b578384fd5b818501915085601f83011261388e578384fd5b813561389c6134a082614802565b81815284810190848601875b848110156138445781358701608080601f19838f030112156138c8578a8bfd5b6138d1816147dc565b8a830135815260408301358b8201526060808401356040830152828401359250898311156138fd578c8dfd5b61390b8f8d858701016135c9565b908201528652505092870192908701906001016138a8565b600060208284031215613934578081fd5b81356001600160401b03811115613949578182fd5b61279d84828501613482565b600060208284031215613966578081fd5b81356001600160401b0381111561397b578182fd5b61279d8482850161353a565b60006020808385031215613999578182fd5b82356001600160401b03808211156139af578384fd5b818501915085601f8301126139c2578384fd5b81356139d06134a082614802565b81815284810190848601875b84811015613844578135870160a080601f19838f030112156139fc578a8bfd5b613a05816147dc565b8a830135815260408301358b82015260608301356040820152608083013589811115613a2f578c8dfd5b613a3d8f8d838701016135c9565b6060830152509101356080820152845292870192908701906001016139dc565b60006020808385031215613a6f578182fd5b82356001600160401b03811115613a84578283fd5b8301601f81018513613a94578283fd5b8035613aa26134a082614802565b818152838101908385016080808502860187018a1015613ac0578788fd5b8795505b84861015613aec57613ad68a83613631565b8452600195909501949286019290810190613ac4565b509098975050505050505050565b600060208284031215613b0b578081fd5b81518015158114612125578182fd5b60008060408385031215613b2c578182fd5b50508035926020909101359150565b600080600060608486031215613b4f578081fd5b505081359360208301359350604090920135919050565b60008060008060808587031215613b7b578182fd5b84359350602085013592506040850135915060608501356001600160401b03811115613ba5578182fd5b613bb1878288016135c9565b91505092959194509250565b600080600060608486031215613bd1578081fd5b833592506020840135915060408401356001600160401b03811115613bf4578182fd5b6136fa868287016135c9565b60008060008060808587031215613c15578182fd5b843593506020850135925060408501356001600160401b03811115613c38578283fd5b613c44878288016135c9565b949793965093946060013593505050565b600080600080600060a08688031215613c6c578283fd5b853594506020860135935060408601356001600160401b0380821115613c90578485fd5b613c9c89838a016135c9565b9450606088013593506080880135915080821115613cb8578283fd5b50613cc5888289016135c9565b9150509295509295909350565b600080600080600060a08688031215613ce9578283fd5b85359450602086013593506040860135925060608601356001600160401b03811115613d13578182fd5b613d1f888289016135c9565b95989497509295608001359392505050565b60008060008060808587031215613d46578182fd5b5050823594602084013594506040840135936060013592509050565b60008060208385031215613d74578182fd5b82356001600160401b0380821115613d8a578384fd5b818501915085601f830112613d9d578384fd5b813581811115613dab578485fd5b866020828501011115613dbc578485fd5b60209290920196919550909350505050565b600060208284031215613ddf578081fd5b613de960206147dc565b9135825250919050565b600060208284031215613e04578081fd5b5035919050565b600060208284031215613e1c578081fd5b5051919050565b60008151808452613e3b81602086016020860161482d565b601f01601f19169290920160200192915050565b60008882528760208301526bffffffffffffffffffffffff198760601b1660408301528560548301528451613e8b81607485016020890161482d565b909101607481019390935250609482015260b40195945050505050565b7f19457468657265756d205369676e6564204d6573736167653a0a3332000000008152601c810191909152603c0190565b6001600160a01b0391909116815260200190565b6001600160a01b03929092168252602082015260400190565b60208082528251828201819052600091906040908185019080840286018301878501865b83811015613aec57888303603f1901855281518051845287810151888501528601516060878501819052613f6081860183613e23565b968901969450505090860190600101613f2a565b602080825282518282018190526000919060409081850190868401855b82811015613fc0578151805160048110613fa757fe5b8552860151868501529284019290850190600101613f91565b5091979650505050505050565b901515815260200190565b90815260200190565b600084825283602083015260606040830152610c556060830184613e23565b93845260ff9290921660208401526040830152606082015260800190565b602081016003831061402c57fe5b91905290565b6000602082526121256020830184613e23565b60208082526018908201527f45434453413a20696e76616c6964207369676e61747572650000000000000000604082015260600190565b6020808252601f908201527f45434453413a20696e76616c6964207369676e6174757265206c656e67746800604082015260600190565b6020808252601c908201527f52657665616c6564206461746120213d20636f6d6d6974206861736800000000604082015260600190565b60208082526026908201527f4f776e61626c653a206e6577206f776e657220697320746865207a65726f206160408201526564647265737360d01b606082015260800190565b6020808252601b908201527f536166654d6174683a206164646974696f6e206f766572666c6f770000000000604082015260600190565b6020808252601d908201527f43616e6e6f742072657665616c20696e20636f6d6d6974207068617365000000604082015260600190565b60208082526022908201527f45434453413a20696e76616c6964207369676e6174757265202773272076616c604082015261756560f01b606082015260800190565b6020808252601b908201527f43616e206f6e6c792063616c6c2066726f6d206d696772617465640000000000604082015260600190565b6020808252600f908201526e125b9d985b1a59081c9bdd5b991259608a1b604082015260600190565b60208082526022908201527f45434453413a20696e76616c6964207369676e6174757265202776272076616c604082015261756560f01b606082015260800190565b602080825260169082015275496e76616c696420616e63696c6c617279206461746160501b604082015260600190565b6020808252601e908201527f556e737570706f72746564206964656e74696669657220726571756573740000604082015260600190565b60208082526021908201527f536166654d6174683a206d756c7469706c69636174696f6e206f766572666c6f6040820152607760f81b606082015260800190565b6020808252818101527f4f776e61626c653a2063616c6c6572206973206e6f7420746865206f776e6572604082015260600190565b6020808252601e908201527f43616e6e6f7420636f6d6d697420696e61637469766520726571756573740000604082015260600190565b6020808252601b908201527f5369676e6174757265206d757374206d617463682073656e6465720000000000604082015260600190565b6020808252601c908201527f566f74696e6720746f6b656e2069737375616e6365206661696c656400000000604082015260600190565b602080825260159082015274092dcecc2d8d2c840e0e4deecd2c8cac840d0c2e6d605b1b604082015260600190565b602080825260139082015272125b9d985b1a59081a185cda081c995d99585b606a1b604082015260600190565b60208082526018908201527f43616e206f6e6c79207265717565737420696e20706173740000000000000000604082015260600190565b6020808252601d908201527f4741542070657263656e74616765206d757374206265203c2031303025000000604082015260600190565b6020808252818101527f43616e2774207265736f6c766520756e7265736f6c7665642072657175657374604082015260600190565b60208082526019908201527f43616c6c6564206d757374206265207265676973746572656400000000000000604082015260600190565b6020808252601d908201527f43616e6e6f7420636f6d6d697420696e2072657665616c207068617365000000604082015260600190565b6020808252601e908201527f4f6e6c792063616c6c2074686973206966206e6f74206d696772617465640000604082015260600190565b602080825260159082015274149bdd5b99081a185cc81b9bc81cdb985c1cda1bdd605a1b604082015260600190565b6020808252601d908201527f526574726965766520666f7220766f7465732073616d6520726f756e64000000604082015260600190565b6020808252601d908201527f4f6e6c7920736e617073686f7420696e2072657665616c207068617365000000604082015260600190565b6020808252601f908201527f43616c6c6572206d757374206265206d69677261746564206164647265737300604082015260600190565b9051815260200190565b60008382526040602083015261279d6040830184613e23565b6000848252606060208301526146b86060830185613e23565b8281036040840152612b748185613e23565b6000848252606060208301526146e36060830185613e23565b9050826040830152949350505050565b6000858252846020830152608060408301526147126080830185613e23565b905082606083015295945050505050565b60006060820185835260208581850152606060408501528285546001808216600081146147575760018114614777576147b2565b614767607f600285041687613fd8565b60ff1984168152850193506147b2565b600283046147858188613fd8565b61478e8b614821565b895b838110156147a957815483820152908501908801614790565b91909101955050505b50919998505050505050505050565b93845291516020840152516040830152606082015260800190565b6040518181016001600160401b03811182821017156147fa57600080fd5b604052919050565b60006001600160401b03821115614817578081fd5b5060209081020190565b60009081526020902090565b60005b83811015614848578181015183820152602001614830565b83811115610d525750506000910152565b6001600160a01b038116811461486e57600080fd5b5056fea2646970667358221220de215d5bfc0c22c24a35d3b0f737148b1f8be20d7f01d0194853e2b695290c8e64736f6c634300060c0033",
    "immutableReferences": {},
    "source": "// SPDX-License-Identifier: AGPL-3.0-only\npragma solidity ^0.6.0;\npragma experimental ABIEncoderV2;\n\nimport \"../../common/implementation/FixedPoint.sol\";\nimport \"../../common/implementation/Testable.sol\";\nimport \"../interfaces/FinderInterface.sol\";\nimport \"../interfaces/OracleInterface.sol\";\nimport \"../interfaces/OracleAncillaryInterface.sol\";\nimport \"../interfaces/VotingInterface.sol\";\nimport \"../interfaces/VotingAncillaryInterface.sol\";\nimport \"../interfaces/IdentifierWhitelistInterface.sol\";\nimport \"./Registry.sol\";\nimport \"./ResultComputation.sol\";\nimport \"./VoteTiming.sol\";\nimport \"./VotingToken.sol\";\nimport \"./Constants.sol\";\n\nimport \"@openzeppelin/contracts/access/Ownable.sol\";\nimport \"@openzeppelin/contracts/math/SafeMath.sol\";\nimport \"@openzeppelin/contracts/cryptography/ECDSA.sol\";\n\n/**\n * @title Voting system for Oracle.\n * @dev Handles receiving and resolving price requests via a commit-reveal voting scheme.\n */\ncontract Voting is\n    Testable,\n    Ownable,\n    OracleInterface,\n    OracleAncillaryInterface, // Interface to support ancillary data with price requests.\n    VotingInterface,\n    VotingAncillaryInterface // Interface to support ancillary data with voting rounds.\n{\n    using FixedPoint for FixedPoint.Unsigned;\n    using SafeMath for uint256;\n    using VoteTiming for VoteTiming.Data;\n    using ResultComputation for ResultComputation.Data;\n\n    /****************************************\n     *        VOTING DATA STRUCTURES        *\n     ****************************************/\n\n    // Identifies a unique price request for which the Oracle will always return the same value.\n    // Tracks ongoing votes as well as the result of the vote.\n    struct PriceRequest {\n        bytes32 identifier;\n        uint256 time;\n        // A map containing all votes for this price in various rounds.\n        mapping(uint256 => VoteInstance) voteInstances;\n        // If in the past, this was the voting round where this price was resolved. If current or the upcoming round,\n        // this is the voting round where this price will be voted on, but not necessarily resolved.\n        uint256 lastVotingRound;\n        // The index in the `pendingPriceRequests` that references this PriceRequest. A value of UINT_MAX means that\n        // this PriceRequest is resolved and has been cleaned up from `pendingPriceRequests`.\n        uint256 index;\n        bytes ancillaryData;\n    }\n\n    struct VoteInstance {\n        // Maps (voterAddress) to their submission.\n        mapping(address => VoteSubmission) voteSubmissions;\n        // The data structure containing the computed voting results.\n        ResultComputation.Data resultComputation;\n    }\n\n    struct VoteSubmission {\n        // A bytes32 of `0` indicates no commit or a commit that was already revealed.\n        bytes32 commit;\n        // The hash of the value that was revealed.\n        // Note: this is only used for computation of rewards.\n        bytes32 revealHash;\n    }\n\n    struct Round {\n        uint256 snapshotId; // Voting token snapshot ID for this round.  0 if no snapshot has been taken.\n        FixedPoint.Unsigned inflationRate; // Inflation rate set for this round.\n        FixedPoint.Unsigned gatPercentage; // Gat rate set for this round.\n        uint256 rewardsExpirationTime; // Time that rewards for this round can be claimed until.\n    }\n\n    // Represents the status a price request has.\n    enum RequestStatus {\n        NotRequested, // Was never requested.\n        Active, // Is being voted on in the current round.\n        Resolved, // Was resolved in a previous round.\n        Future // Is scheduled to be voted on in a future round.\n    }\n\n    // Only used as a return value in view methods -- never stored in the contract.\n    struct RequestState {\n        RequestStatus status;\n        uint256 lastVotingRound;\n    }\n\n    /****************************************\n     *          INTERNAL TRACKING           *\n     ****************************************/\n\n    // Maps round numbers to the rounds.\n    mapping(uint256 => Round) public rounds;\n\n    // Maps price request IDs to the PriceRequest struct.\n    mapping(bytes32 => PriceRequest) private priceRequests;\n\n    // Price request ids for price requests that haven't yet been marked as resolved.\n    // These requests may be for future rounds.\n    bytes32[] internal pendingPriceRequests;\n\n    VoteTiming.Data public voteTiming;\n\n    // Percentage of the total token supply that must be used in a vote to\n    // create a valid price resolution. 1 == 100%.\n    FixedPoint.Unsigned public gatPercentage;\n\n    // Global setting for the rate of inflation per vote. This is the percentage of the snapshotted total supply that\n    // should be split among the correct voters.\n    // Note: this value is used to set per-round inflation at the beginning of each round. 1 = 100%.\n    FixedPoint.Unsigned public inflationRate;\n\n    // Time in seconds from the end of the round in which a price request is\n    // resolved that voters can still claim their rewards.\n    uint256 public rewardsExpirationTimeout;\n\n    // Reference to the voting token.\n    VotingToken public votingToken;\n\n    // Reference to the Finder.\n    FinderInterface private finder;\n\n    // If non-zero, this contract has been migrated to this address. All voters and\n    // financial contracts should query the new address only.\n    address public migratedAddress;\n\n    // Max value of an unsigned integer.\n    uint256 private constant UINT_MAX = ~uint256(0);\n\n    // Max length in bytes of ancillary data that can be appended to a price request.\n    // As of December 2020, the current Ethereum gas limit is 12.5 million. This requestPrice function's gas primarily\n    // comes from computing a Keccak-256 hash in _encodePriceRequest and writing a new PriceRequest to\n    // storage. We have empirically determined an ancillary data limit of 8192 bytes that keeps this function\n    // well within the gas limit at ~8 million gas. To learn more about the gas limit and EVM opcode costs go here:\n    // - https://etherscan.io/chart/gaslimit\n    // - https://github.com/djrtwo/evm-opcode-gas-costs\n    uint256 public constant ancillaryBytesLimit = 8192;\n\n    bytes32 public snapshotMessageHash = ECDSA.toEthSignedMessageHash(keccak256(bytes(\"Sign For Snapshot\")));\n\n    /***************************************\n     *                EVENTS                *\n     ****************************************/\n\n    event VoteCommitted(\n        address indexed voter,\n        uint256 indexed roundId,\n        bytes32 indexed identifier,\n        uint256 time,\n        bytes ancillaryData\n    );\n\n    event EncryptedVote(\n        address indexed voter,\n        uint256 indexed roundId,\n        bytes32 indexed identifier,\n        uint256 time,\n        bytes ancillaryData,\n        bytes encryptedVote\n    );\n\n    event VoteRevealed(\n        address indexed voter,\n        uint256 indexed roundId,\n        bytes32 indexed identifier,\n        uint256 time,\n        int256 price,\n        bytes ancillaryData,\n        uint256 numTokens\n    );\n\n    event RewardsRetrieved(\n        address indexed voter,\n        uint256 indexed roundId,\n        bytes32 indexed identifier,\n        uint256 time,\n        bytes ancillaryData,\n        uint256 numTokens\n    );\n\n    event PriceRequestAdded(uint256 indexed roundId, bytes32 indexed identifier, uint256 time);\n\n    event PriceResolved(\n        uint256 indexed roundId,\n        bytes32 indexed identifier,\n        uint256 time,\n        int256 price,\n        bytes ancillaryData\n    );\n\n    /**\n     * @notice Construct the Voting contract.\n     * @param _phaseLength length of the commit and reveal phases in seconds.\n     * @param _gatPercentage of the total token supply that must be used in a vote to create a valid price resolution.\n     * @param _inflationRate percentage inflation per round used to increase token supply of correct voters.\n     * @param _rewardsExpirationTimeout timeout, in seconds, within which rewards must be claimed.\n     * @param _votingToken address of the UMA token contract used to commit votes.\n     * @param _finder keeps track of all contracts within the system based on their interfaceName.\n     * @param _timerAddress Contract that stores the current time in a testing environment.\n     * Must be set to 0x0 for production environments that use live time.\n     */\n    constructor(\n        uint256 _phaseLength,\n        FixedPoint.Unsigned memory _gatPercentage,\n        FixedPoint.Unsigned memory _inflationRate,\n        uint256 _rewardsExpirationTimeout,\n        address _votingToken,\n        address _finder,\n        address _timerAddress\n    ) public Testable(_timerAddress) {\n        voteTiming.init(_phaseLength);\n        require(_gatPercentage.isLessThanOrEqual(1), \"GAT percentage must be <= 100%\");\n        gatPercentage = _gatPercentage;\n        inflationRate = _inflationRate;\n        votingToken = VotingToken(_votingToken);\n        finder = FinderInterface(_finder);\n        rewardsExpirationTimeout = _rewardsExpirationTimeout;\n    }\n\n    /***************************************\n                    MODIFIERS\n    ****************************************/\n\n    modifier onlyRegisteredContract() {\n        if (migratedAddress != address(0)) {\n            require(msg.sender == migratedAddress, \"Caller must be migrated address\");\n        } else {\n            Registry registry = Registry(finder.getImplementationAddress(OracleInterfaces.Registry));\n            require(registry.isContractRegistered(msg.sender), \"Called must be registered\");\n        }\n        _;\n    }\n\n    modifier onlyIfNotMigrated() {\n        require(migratedAddress == address(0), \"Only call this if not migrated\");\n        _;\n    }\n\n    /****************************************\n     *  PRICE REQUEST AND ACCESS FUNCTIONS  *\n     ****************************************/\n\n    /**\n     * @notice Enqueues a request (if a request isn't already present) for the given `identifier`, `time` pair.\n     * @dev Time must be in the past and the identifier must be supported. The length of the ancillary data\n     * is limited such that this method abides by the EVM transaction gas limit.\n     * @param identifier uniquely identifies the price requested. eg BTC/USD (encoded as bytes32) could be requested.\n     * @param time unix timestamp for the price request.\n     * @param ancillaryData arbitrary data appended to a price request to give the voters more info from the caller.\n     */\n    function requestPrice(\n        bytes32 identifier,\n        uint256 time,\n        bytes memory ancillaryData\n    ) public override onlyRegisteredContract() {\n        uint256 blockTime = getCurrentTime();\n        require(time <= blockTime, \"Can only request in past\");\n        require(_getIdentifierWhitelist().isIdentifierSupported(identifier), \"Unsupported identifier request\");\n        require(ancillaryData.length <= ancillaryBytesLimit, \"Invalid ancillary data\");\n\n        bytes32 priceRequestId = _encodePriceRequest(identifier, time, ancillaryData);\n        PriceRequest storage priceRequest = priceRequests[priceRequestId];\n        uint256 currentRoundId = voteTiming.computeCurrentRoundId(blockTime);\n\n        RequestStatus requestStatus = _getRequestStatus(priceRequest, currentRoundId);\n\n        if (requestStatus == RequestStatus.NotRequested) {\n            // Price has never been requested.\n            // Price requests always go in the next round, so add 1 to the computed current round.\n            uint256 nextRoundId = currentRoundId.add(1);\n\n            priceRequests[priceRequestId] = PriceRequest({\n                identifier: identifier,\n                time: time,\n                lastVotingRound: nextRoundId,\n                index: pendingPriceRequests.length,\n                ancillaryData: ancillaryData\n            });\n            pendingPriceRequests.push(priceRequestId);\n            emit PriceRequestAdded(nextRoundId, identifier, time);\n        }\n    }\n\n    // Overloaded method to enable short term backwards compatibility. Will be deprecated in the next DVM version.\n    function requestPrice(bytes32 identifier, uint256 time) public override {\n        requestPrice(identifier, time, \"\");\n    }\n\n    /**\n     * @notice Whether the price for `identifier` and `time` is available.\n     * @dev Time must be in the past and the identifier must be supported.\n     * @param identifier uniquely identifies the price requested. eg BTC/USD (encoded as bytes32) could be requested.\n     * @param time unix timestamp of for the price request.\n     * @param ancillaryData arbitrary data appended to a price request to give the voters more info from the caller.\n     * @return _hasPrice bool if the DVM has resolved to a price for the given identifier and timestamp.\n     */\n    function hasPrice(\n        bytes32 identifier,\n        uint256 time,\n        bytes memory ancillaryData\n    ) public view override onlyRegisteredContract() returns (bool) {\n        (bool _hasPrice, , ) = _getPriceOrError(identifier, time, ancillaryData);\n        return _hasPrice;\n    }\n\n    // Overloaded method to enable short term backwards compatibility. Will be deprecated in the next DVM version.\n    function hasPrice(bytes32 identifier, uint256 time) public view override returns (bool) {\n        return hasPrice(identifier, time, \"\");\n    }\n\n    /**\n     * @notice Gets the price for `identifier` and `time` if it has already been requested and resolved.\n     * @dev If the price is not available, the method reverts.\n     * @param identifier uniquely identifies the price requested. eg BTC/USD (encoded as bytes32) could be requested.\n     * @param time unix timestamp of for the price request.\n     * @param ancillaryData arbitrary data appended to a price request to give the voters more info from the caller.\n     * @return int256 representing the resolved price for the given identifier and timestamp.\n     */\n    function getPrice(\n        bytes32 identifier,\n        uint256 time,\n        bytes memory ancillaryData\n    ) public view override onlyRegisteredContract() returns (int256) {\n        (bool _hasPrice, int256 price, string memory message) = _getPriceOrError(identifier, time, ancillaryData);\n\n        // If the price wasn't available, revert with the provided message.\n        require(_hasPrice, message);\n        return price;\n    }\n\n    // Overloaded method to enable short term backwards compatibility. Will be deprecated in the next DVM version.\n    function getPrice(bytes32 identifier, uint256 time) public view override returns (int256) {\n        return getPrice(identifier, time, \"\");\n    }\n\n    /**\n     * @notice Gets the status of a list of price requests, identified by their identifier and time.\n     * @dev If the status for a particular request is NotRequested, the lastVotingRound will always be 0.\n     * @param requests array of type PendingRequest which includes an identifier and timestamp for each request.\n     * @return requestStates a list, in the same order as the input list, giving the status of each of the specified price requests.\n     */\n    function getPriceRequestStatuses(PendingRequestAncillary[] memory requests)\n        public\n        view\n        returns (RequestState[] memory)\n    {\n        RequestState[] memory requestStates = new RequestState[](requests.length);\n        uint256 currentRoundId = voteTiming.computeCurrentRoundId(getCurrentTime());\n        for (uint256 i = 0; i < requests.length; i++) {\n            PriceRequest storage priceRequest =\n                _getPriceRequest(requests[i].identifier, requests[i].time, requests[i].ancillaryData);\n\n            RequestStatus status = _getRequestStatus(priceRequest, currentRoundId);\n\n            // If it's an active request, its true lastVotingRound is the current one, even if it hasn't been updated.\n            if (status == RequestStatus.Active) {\n                requestStates[i].lastVotingRound = currentRoundId;\n            } else {\n                requestStates[i].lastVotingRound = priceRequest.lastVotingRound;\n            }\n            requestStates[i].status = status;\n        }\n        return requestStates;\n    }\n\n    // Overloaded method to enable short term backwards compatibility. Will be deprecated in the next DVM version.\n    function getPriceRequestStatuses(PendingRequest[] memory requests) public view returns (RequestState[] memory) {\n        PendingRequestAncillary[] memory requestsAncillary = new PendingRequestAncillary[](requests.length);\n\n        for (uint256 i = 0; i < requests.length; i++) {\n            requestsAncillary[i].identifier = requests[i].identifier;\n            requestsAncillary[i].time = requests[i].time;\n            requestsAncillary[i].ancillaryData = \"\";\n        }\n        return getPriceRequestStatuses(requestsAncillary);\n    }\n\n    /****************************************\n     *            VOTING FUNCTIONS          *\n     ****************************************/\n\n    /**\n     * @notice Commit a vote for a price request for `identifier` at `time`.\n     * @dev `identifier`, `time` must correspond to a price request that's currently in the commit phase.\n     * Commits can be changed.\n     * @dev Since transaction data is public, the salt will be revealed with the vote. While this is the systems expected behavior,\n     * voters should never reuse salts. If someone else is able to guess the voted price and knows that a salt will be reused, then\n     * they can determine the vote pre-reveal.\n     * @param identifier uniquely identifies the committed vote. EG BTC/USD price pair.\n     * @param time unix timestamp of the price being voted on.\n     * @param ancillaryData arbitrary data appended to a price request to give the voters more info from the caller.\n     * @param hash keccak256 hash of the `price`, `salt`, voter `address`, `time`, current `roundId`, and `identifier`.\n     */\n    function commitVote(\n        bytes32 identifier,\n        uint256 time,\n        bytes memory ancillaryData,\n        bytes32 hash\n    ) public override onlyIfNotMigrated() {\n        require(hash != bytes32(0), \"Invalid provided hash\");\n        // Current time is required for all vote timing queries.\n        uint256 blockTime = getCurrentTime();\n        require(\n            voteTiming.computeCurrentPhase(blockTime) == VotingAncillaryInterface.Phase.Commit,\n            \"Cannot commit in reveal phase\"\n        );\n\n        // At this point, the computed and last updated round ID should be equal.\n        uint256 currentRoundId = voteTiming.computeCurrentRoundId(blockTime);\n\n        PriceRequest storage priceRequest = _getPriceRequest(identifier, time, ancillaryData);\n        require(\n            _getRequestStatus(priceRequest, currentRoundId) == RequestStatus.Active,\n            \"Cannot commit inactive request\"\n        );\n\n        priceRequest.lastVotingRound = currentRoundId;\n        VoteInstance storage voteInstance = priceRequest.voteInstances[currentRoundId];\n        voteInstance.voteSubmissions[msg.sender].commit = hash;\n\n        emit VoteCommitted(msg.sender, currentRoundId, identifier, time, ancillaryData);\n    }\n\n    // Overloaded method to enable short term backwards compatibility. Will be deprecated in the next DVM version.\n    function commitVote(\n        bytes32 identifier,\n        uint256 time,\n        bytes32 hash\n    ) public override onlyIfNotMigrated() {\n        commitVote(identifier, time, \"\", hash);\n    }\n\n    /**\n     * @notice Snapshot the current round's token balances and lock in the inflation rate and GAT.\n     * @dev This function can be called multiple times, but only the first call per round into this function or `revealVote`\n     * will create the round snapshot. Any later calls will be a no-op. Will revert unless called during reveal period.\n     * @param signature  signature required to prove caller is an EOA to prevent flash loans from being included in the\n     * snapshot.\n     */\n    function snapshotCurrentRound(bytes calldata signature)\n        external\n        override(VotingInterface, VotingAncillaryInterface)\n        onlyIfNotMigrated()\n    {\n        uint256 blockTime = getCurrentTime();\n        require(voteTiming.computeCurrentPhase(blockTime) == Phase.Reveal, \"Only snapshot in reveal phase\");\n        // Require public snapshot require signature to ensure caller is an EOA.\n        require(ECDSA.recover(snapshotMessageHash, signature) == msg.sender, \"Signature must match sender\");\n        uint256 roundId = voteTiming.computeCurrentRoundId(blockTime);\n        _freezeRoundVariables(roundId);\n    }\n\n    /**\n     * @notice Reveal a previously committed vote for `identifier` at `time`.\n     * @dev The revealed `price`, `salt`, `address`, `time`, `roundId`, and `identifier`, must hash to the latest `hash`\n     * that `commitVote()` was called with. Only the committer can reveal their vote.\n     * @param identifier voted on in the commit phase. EG BTC/USD price pair.\n     * @param time specifies the unix timestamp of the price being voted on.\n     * @param price voted on during the commit phase.\n     * @param ancillaryData arbitrary data appended to a price request to give the voters more info from the caller.\n     * @param salt value used to hide the commitment price during the commit phase.\n     */\n    function revealVote(\n        bytes32 identifier,\n        uint256 time,\n        int256 price,\n        bytes memory ancillaryData,\n        int256 salt\n    ) public override onlyIfNotMigrated() {\n        require(voteTiming.computeCurrentPhase(getCurrentTime()) == Phase.Reveal, \"Cannot reveal in commit phase\");\n        // Note: computing the current round is required to disallow people from revealing an old commit after the round is over.\n        uint256 roundId = voteTiming.computeCurrentRoundId(getCurrentTime());\n\n        PriceRequest storage priceRequest = _getPriceRequest(identifier, time, ancillaryData);\n        VoteInstance storage voteInstance = priceRequest.voteInstances[roundId];\n        VoteSubmission storage voteSubmission = voteInstance.voteSubmissions[msg.sender];\n\n        // Scoping to get rid of a stack too deep error.\n        {\n            // 0 hashes are disallowed in the commit phase, so they indicate a different error.\n            // Cannot reveal an uncommitted or previously revealed hash\n            require(voteSubmission.commit != bytes32(0), \"Invalid hash reveal\");\n            require(\n                keccak256(abi.encodePacked(price, salt, msg.sender, time, ancillaryData, roundId, identifier)) ==\n                    voteSubmission.commit,\n                \"Revealed data != commit hash\"\n            );\n            // To protect against flash loans, we require snapshot be validated as EOA.\n            require(rounds[roundId].snapshotId != 0, \"Round has no snapshot\");\n        }\n\n        // Get the frozen snapshotId\n        uint256 snapshotId = rounds[roundId].snapshotId;\n\n        delete voteSubmission.commit;\n\n        // Get the voter's snapshotted balance. Since balances are returned pre-scaled by 10**18, we can directly\n        // initialize the Unsigned value with the returned uint.\n        FixedPoint.Unsigned memory balance = FixedPoint.Unsigned(votingToken.balanceOfAt(msg.sender, snapshotId));\n\n        // Set the voter's submission.\n        voteSubmission.revealHash = keccak256(abi.encode(price));\n\n        // Add vote to the results.\n        voteInstance.resultComputation.addVote(price, balance);\n\n        emit VoteRevealed(msg.sender, roundId, identifier, time, price, ancillaryData, balance.rawValue);\n    }\n\n    // Overloaded method to enable short term backwards compatibility. Will be deprecated in the next DVM version.\n    function revealVote(\n        bytes32 identifier,\n        uint256 time,\n        int256 price,\n        int256 salt\n    ) public override {\n        revealVote(identifier, time, price, \"\", salt);\n    }\n\n    /**\n     * @notice commits a vote and logs an event with a data blob, typically an encrypted version of the vote\n     * @dev An encrypted version of the vote is emitted in an event `EncryptedVote` to allow off-chain infrastructure to\n     * retrieve the commit. The contents of `encryptedVote` are never used on chain: it is purely for convenience.\n     * @param identifier unique price pair identifier. Eg: BTC/USD price pair.\n     * @param time unix timestamp of for the price request.\n     * @param ancillaryData arbitrary data appended to a price request to give the voters more info from the caller.\n     * @param hash keccak256 hash of the price you want to vote for and a `int256 salt`.\n     * @param encryptedVote offchain encrypted blob containing the voters amount, time and salt.\n     */\n    function commitAndEmitEncryptedVote(\n        bytes32 identifier,\n        uint256 time,\n        bytes memory ancillaryData,\n        bytes32 hash,\n        bytes memory encryptedVote\n    ) public override {\n        commitVote(identifier, time, ancillaryData, hash);\n\n        uint256 roundId = voteTiming.computeCurrentRoundId(getCurrentTime());\n        emit EncryptedVote(msg.sender, roundId, identifier, time, ancillaryData, encryptedVote);\n    }\n\n    // Overloaded method to enable short term backwards compatibility. Will be deprecated in the next DVM version.\n    function commitAndEmitEncryptedVote(\n        bytes32 identifier,\n        uint256 time,\n        bytes32 hash,\n        bytes memory encryptedVote\n    ) public override {\n        commitVote(identifier, time, \"\", hash);\n\n        commitAndEmitEncryptedVote(identifier, time, \"\", hash, encryptedVote);\n    }\n\n    /**\n     * @notice Submit a batch of commits in a single transaction.\n     * @dev Using `encryptedVote` is optional. If included then commitment is emitted in an event.\n     * Look at `project-root/common/Constants.js` for the tested maximum number of\n     * commitments that can fit in one transaction.\n     * @param commits struct to encapsulate an `identifier`, `time`, `hash` and optional `encryptedVote`.\n     */\n    function batchCommit(CommitmentAncillary[] memory commits) public override {\n        for (uint256 i = 0; i < commits.length; i++) {\n            if (commits[i].encryptedVote.length == 0) {\n                commitVote(commits[i].identifier, commits[i].time, commits[i].ancillaryData, commits[i].hash);\n            } else {\n                commitAndEmitEncryptedVote(\n                    commits[i].identifier,\n                    commits[i].time,\n                    commits[i].ancillaryData,\n                    commits[i].hash,\n                    commits[i].encryptedVote\n                );\n            }\n        }\n    }\n\n    // Overloaded method to enable short term backwards compatibility. Will be deprecated in the next DVM version.\n    function batchCommit(Commitment[] memory commits) public override {\n        CommitmentAncillary[] memory commitsAncillary = new CommitmentAncillary[](commits.length);\n\n        for (uint256 i = 0; i < commits.length; i++) {\n            commitsAncillary[i].identifier = commits[i].identifier;\n            commitsAncillary[i].time = commits[i].time;\n            commitsAncillary[i].ancillaryData = \"\";\n            commitsAncillary[i].hash = commits[i].hash;\n            commitsAncillary[i].encryptedVote = commits[i].encryptedVote;\n        }\n        batchCommit(commitsAncillary);\n    }\n\n    /**\n     * @notice Reveal multiple votes in a single transaction.\n     * Look at `project-root/common/Constants.js` for the tested maximum number of reveals.\n     * that can fit in one transaction.\n     * @dev For more info on reveals, review the comment for `revealVote`.\n     * @param reveals array of the Reveal struct which contains an identifier, time, price and salt.\n     */\n    function batchReveal(RevealAncillary[] memory reveals) public override {\n        for (uint256 i = 0; i < reveals.length; i++) {\n            revealVote(\n                reveals[i].identifier,\n                reveals[i].time,\n                reveals[i].price,\n                reveals[i].ancillaryData,\n                reveals[i].salt\n            );\n        }\n    }\n\n    // Overloaded method to enable short term backwards compatibility. Will be deprecated in the next DVM version.\n    function batchReveal(Reveal[] memory reveals) public override {\n        RevealAncillary[] memory revealsAncillary = new RevealAncillary[](reveals.length);\n\n        for (uint256 i = 0; i < reveals.length; i++) {\n            revealsAncillary[i].identifier = reveals[i].identifier;\n            revealsAncillary[i].time = reveals[i].time;\n            revealsAncillary[i].price = reveals[i].price;\n            revealsAncillary[i].ancillaryData = \"\";\n            revealsAncillary[i].salt = reveals[i].salt;\n        }\n        batchReveal(revealsAncillary);\n    }\n\n    /**\n     * @notice Retrieves rewards owed for a set of resolved price requests.\n     * @dev Can only retrieve rewards if calling for a valid round and if the call is done within the timeout threshold\n     * (not expired). Note that a named return value is used here to avoid a stack to deep error.\n     * @param voterAddress voter for which rewards will be retrieved. Does not have to be the caller.\n     * @param roundId the round from which voting rewards will be retrieved from.\n     * @param toRetrieve array of PendingRequests which rewards are retrieved from.\n     * @return totalRewardToIssue total amount of rewards returned to the voter.\n     */\n    function retrieveRewards(\n        address voterAddress,\n        uint256 roundId,\n        PendingRequestAncillary[] memory toRetrieve\n    ) public override returns (FixedPoint.Unsigned memory totalRewardToIssue) {\n        if (migratedAddress != address(0)) {\n            require(msg.sender == migratedAddress, \"Can only call from migrated\");\n        }\n        require(roundId < voteTiming.computeCurrentRoundId(getCurrentTime()), \"Invalid roundId\");\n\n        Round storage round = rounds[roundId];\n        bool isExpired = getCurrentTime() > round.rewardsExpirationTime;\n        FixedPoint.Unsigned memory snapshotBalance =\n            FixedPoint.Unsigned(votingToken.balanceOfAt(voterAddress, round.snapshotId));\n\n        // Compute the total amount of reward that will be issued for each of the votes in the round.\n        FixedPoint.Unsigned memory snapshotTotalSupply =\n            FixedPoint.Unsigned(votingToken.totalSupplyAt(round.snapshotId));\n        FixedPoint.Unsigned memory totalRewardPerVote = round.inflationRate.mul(snapshotTotalSupply);\n\n        // Keep track of the voter's accumulated token reward.\n        totalRewardToIssue = FixedPoint.Unsigned(0);\n\n        for (uint256 i = 0; i < toRetrieve.length; i++) {\n            PriceRequest storage priceRequest =\n                _getPriceRequest(toRetrieve[i].identifier, toRetrieve[i].time, toRetrieve[i].ancillaryData);\n            VoteInstance storage voteInstance = priceRequest.voteInstances[priceRequest.lastVotingRound];\n            // Only retrieve rewards for votes resolved in same round\n            require(priceRequest.lastVotingRound == roundId, \"Retrieve for votes same round\");\n\n            _resolvePriceRequest(priceRequest, voteInstance);\n\n            if (voteInstance.voteSubmissions[voterAddress].revealHash == 0) {\n                continue;\n            } else if (isExpired) {\n                // Emit a 0 token retrieval on expired rewards.\n                emit RewardsRetrieved(\n                    voterAddress,\n                    roundId,\n                    toRetrieve[i].identifier,\n                    toRetrieve[i].time,\n                    toRetrieve[i].ancillaryData,\n                    0\n                );\n            } else if (\n                voteInstance.resultComputation.wasVoteCorrect(voteInstance.voteSubmissions[voterAddress].revealHash)\n            ) {\n                // The price was successfully resolved during the voter's last voting round, the voter revealed\n                // and was correct, so they are eligible for a reward.\n                // Compute the reward and add to the cumulative reward.\n\n                FixedPoint.Unsigned memory reward =\n                    snapshotBalance.mul(totalRewardPerVote).div(\n                        voteInstance.resultComputation.getTotalCorrectlyVotedTokens()\n                    );\n                totalRewardToIssue = totalRewardToIssue.add(reward);\n\n                // Emit reward retrieval for this vote.\n                emit RewardsRetrieved(\n                    voterAddress,\n                    roundId,\n                    toRetrieve[i].identifier,\n                    toRetrieve[i].time,\n                    toRetrieve[i].ancillaryData,\n                    reward.rawValue\n                );\n            } else {\n                // Emit a 0 token retrieval on incorrect votes.\n                emit RewardsRetrieved(\n                    voterAddress,\n                    roundId,\n                    toRetrieve[i].identifier,\n                    toRetrieve[i].time,\n                    toRetrieve[i].ancillaryData,\n                    0\n                );\n            }\n\n            // Delete the submission to capture any refund and clean up storage.\n            delete voteInstance.voteSubmissions[voterAddress].revealHash;\n        }\n\n        // Issue any accumulated rewards.\n        if (totalRewardToIssue.isGreaterThan(0)) {\n            require(votingToken.mint(voterAddress, totalRewardToIssue.rawValue), \"Voting token issuance failed\");\n        }\n    }\n\n    // Overloaded method to enable short term backwards compatibility. Will be deprecated in the next DVM version.\n    function retrieveRewards(\n        address voterAddress,\n        uint256 roundId,\n        PendingRequest[] memory toRetrieve\n    ) public override returns (FixedPoint.Unsigned memory) {\n        PendingRequestAncillary[] memory toRetrieveAncillary = new PendingRequestAncillary[](toRetrieve.length);\n\n        for (uint256 i = 0; i < toRetrieve.length; i++) {\n            toRetrieveAncillary[i].identifier = toRetrieve[i].identifier;\n            toRetrieveAncillary[i].time = toRetrieve[i].time;\n            toRetrieveAncillary[i].ancillaryData = \"\";\n        }\n\n        return retrieveRewards(voterAddress, roundId, toRetrieveAncillary);\n    }\n\n    /****************************************\n     *        VOTING GETTER FUNCTIONS       *\n     ****************************************/\n\n    /**\n     * @notice Gets the queries that are being voted on this round.\n     * @return pendingRequests array containing identifiers of type `PendingRequest`.\n     * and timestamps for all pending requests.\n     */\n    function getPendingRequests()\n        external\n        view\n        override(VotingInterface, VotingAncillaryInterface)\n        returns (PendingRequestAncillary[] memory)\n    {\n        uint256 blockTime = getCurrentTime();\n        uint256 currentRoundId = voteTiming.computeCurrentRoundId(blockTime);\n\n        // Solidity memory arrays aren't resizable (and reading storage is expensive). Hence this hackery to filter\n        // `pendingPriceRequests` only to those requests that have an Active RequestStatus.\n        PendingRequestAncillary[] memory unresolved = new PendingRequestAncillary[](pendingPriceRequests.length);\n        uint256 numUnresolved = 0;\n\n        for (uint256 i = 0; i < pendingPriceRequests.length; i++) {\n            PriceRequest storage priceRequest = priceRequests[pendingPriceRequests[i]];\n            if (_getRequestStatus(priceRequest, currentRoundId) == RequestStatus.Active) {\n                unresolved[numUnresolved] = PendingRequestAncillary({\n                    identifier: priceRequest.identifier,\n                    time: priceRequest.time,\n                    ancillaryData: priceRequest.ancillaryData\n                });\n                numUnresolved++;\n            }\n        }\n\n        PendingRequestAncillary[] memory pendingRequests = new PendingRequestAncillary[](numUnresolved);\n        for (uint256 i = 0; i < numUnresolved; i++) {\n            pendingRequests[i] = unresolved[i];\n        }\n        return pendingRequests;\n    }\n\n    /**\n     * @notice Returns the current voting phase, as a function of the current time.\n     * @return Phase to indicate the current phase. Either { Commit, Reveal, NUM_PHASES_PLACEHOLDER }.\n     */\n    function getVotePhase() external view override(VotingInterface, VotingAncillaryInterface) returns (Phase) {\n        return voteTiming.computeCurrentPhase(getCurrentTime());\n    }\n\n    /**\n     * @notice Returns the current round ID, as a function of the current time.\n     * @return uint256 representing the unique round ID.\n     */\n    function getCurrentRoundId() external view override(VotingInterface, VotingAncillaryInterface) returns (uint256) {\n        return voteTiming.computeCurrentRoundId(getCurrentTime());\n    }\n\n    /****************************************\n     *        OWNER ADMIN FUNCTIONS         *\n     ****************************************/\n\n    /**\n     * @notice Disables this Voting contract in favor of the migrated one.\n     * @dev Can only be called by the contract owner.\n     * @param newVotingAddress the newly migrated contract address.\n     */\n    function setMigrated(address newVotingAddress)\n        external\n        override(VotingInterface, VotingAncillaryInterface)\n        onlyOwner\n    {\n        migratedAddress = newVotingAddress;\n    }\n\n    /**\n     * @notice Resets the inflation rate. Note: this change only applies to rounds that have not yet begun.\n     * @dev This method is public because calldata structs are not currently supported by solidity.\n     * @param newInflationRate sets the next round's inflation rate.\n     */\n    function setInflationRate(FixedPoint.Unsigned memory newInflationRate)\n        public\n        override(VotingInterface, VotingAncillaryInterface)\n        onlyOwner\n    {\n        inflationRate = newInflationRate;\n    }\n\n    /**\n     * @notice Resets the Gat percentage. Note: this change only applies to rounds that have not yet begun.\n     * @dev This method is public because calldata structs are not currently supported by solidity.\n     * @param newGatPercentage sets the next round's Gat percentage.\n     */\n    function setGatPercentage(FixedPoint.Unsigned memory newGatPercentage)\n        public\n        override(VotingInterface, VotingAncillaryInterface)\n        onlyOwner\n    {\n        require(newGatPercentage.isLessThan(1), \"GAT percentage must be < 100%\");\n        gatPercentage = newGatPercentage;\n    }\n\n    /**\n     * @notice Resets the rewards expiration timeout.\n     * @dev This change only applies to rounds that have not yet begun.\n     * @param NewRewardsExpirationTimeout how long a caller can wait before choosing to withdraw their rewards.\n     */\n    function setRewardsExpirationTimeout(uint256 NewRewardsExpirationTimeout)\n        public\n        override(VotingInterface, VotingAncillaryInterface)\n        onlyOwner\n    {\n        rewardsExpirationTimeout = NewRewardsExpirationTimeout;\n    }\n\n    /****************************************\n     *    PRIVATE AND INTERNAL FUNCTIONS    *\n     ****************************************/\n\n    // Returns the price for a given identifer. Three params are returns: bool if there was an error, int to represent\n    // the resolved price and a string which is filled with an error message, if there was an error or \"\".\n    function _getPriceOrError(\n        bytes32 identifier,\n        uint256 time,\n        bytes memory ancillaryData\n    )\n        private\n        view\n        returns (\n            bool,\n            int256,\n            string memory\n        )\n    {\n        PriceRequest storage priceRequest = _getPriceRequest(identifier, time, ancillaryData);\n        uint256 currentRoundId = voteTiming.computeCurrentRoundId(getCurrentTime());\n\n        RequestStatus requestStatus = _getRequestStatus(priceRequest, currentRoundId);\n        if (requestStatus == RequestStatus.Active) {\n            return (false, 0, \"Current voting round not ended\");\n        } else if (requestStatus == RequestStatus.Resolved) {\n            VoteInstance storage voteInstance = priceRequest.voteInstances[priceRequest.lastVotingRound];\n            (, int256 resolvedPrice) =\n                voteInstance.resultComputation.getResolvedPrice(_computeGat(priceRequest.lastVotingRound));\n            return (true, resolvedPrice, \"\");\n        } else if (requestStatus == RequestStatus.Future) {\n            return (false, 0, \"Price is still to be voted on\");\n        } else {\n            return (false, 0, \"Price was never requested\");\n        }\n    }\n\n    function _getPriceRequest(\n        bytes32 identifier,\n        uint256 time,\n        bytes memory ancillaryData\n    ) private view returns (PriceRequest storage) {\n        return priceRequests[_encodePriceRequest(identifier, time, ancillaryData)];\n    }\n\n    function _encodePriceRequest(\n        bytes32 identifier,\n        uint256 time,\n        bytes memory ancillaryData\n    ) private pure returns (bytes32) {\n        return keccak256(abi.encode(identifier, time, ancillaryData));\n    }\n\n    function _freezeRoundVariables(uint256 roundId) private {\n        Round storage round = rounds[roundId];\n        // Only on the first reveal should the snapshot be captured for that round.\n        if (round.snapshotId == 0) {\n            // There is no snapshot ID set, so create one.\n            round.snapshotId = votingToken.snapshot();\n\n            // Set the round inflation rate to the current global inflation rate.\n            rounds[roundId].inflationRate = inflationRate;\n\n            // Set the round gat percentage to the current global gat rate.\n            rounds[roundId].gatPercentage = gatPercentage;\n\n            // Set the rewards expiration time based on end of time of this round and the current global timeout.\n            rounds[roundId].rewardsExpirationTime = voteTiming.computeRoundEndTime(roundId).add(\n                rewardsExpirationTimeout\n            );\n        }\n    }\n\n    function _resolvePriceRequest(PriceRequest storage priceRequest, VoteInstance storage voteInstance) private {\n        if (priceRequest.index == UINT_MAX) {\n            return;\n        }\n        (bool isResolved, int256 resolvedPrice) =\n            voteInstance.resultComputation.getResolvedPrice(_computeGat(priceRequest.lastVotingRound));\n        require(isResolved, \"Can't resolve unresolved request\");\n\n        // Delete the resolved price request from pendingPriceRequests.\n        uint256 lastIndex = pendingPriceRequests.length - 1;\n        PriceRequest storage lastPriceRequest = priceRequests[pendingPriceRequests[lastIndex]];\n        lastPriceRequest.index = priceRequest.index;\n        pendingPriceRequests[priceRequest.index] = pendingPriceRequests[lastIndex];\n        pendingPriceRequests.pop();\n\n        priceRequest.index = UINT_MAX;\n        emit PriceResolved(\n            priceRequest.lastVotingRound,\n            priceRequest.identifier,\n            priceRequest.time,\n            resolvedPrice,\n            priceRequest.ancillaryData\n        );\n    }\n\n    function _computeGat(uint256 roundId) private view returns (FixedPoint.Unsigned memory) {\n        uint256 snapshotId = rounds[roundId].snapshotId;\n        if (snapshotId == 0) {\n            // No snapshot - return max value to err on the side of caution.\n            return FixedPoint.Unsigned(UINT_MAX);\n        }\n\n        // Grab the snapshotted supply from the voting token. It's already scaled by 10**18, so we can directly\n        // initialize the Unsigned value with the returned uint.\n        FixedPoint.Unsigned memory snapshottedSupply = FixedPoint.Unsigned(votingToken.totalSupplyAt(snapshotId));\n\n        // Multiply the total supply at the snapshot by the gatPercentage to get the GAT in number of tokens.\n        return snapshottedSupply.mul(rounds[roundId].gatPercentage);\n    }\n\n    function _getRequestStatus(PriceRequest storage priceRequest, uint256 currentRoundId)\n        private\n        view\n        returns (RequestStatus)\n    {\n        if (priceRequest.lastVotingRound == 0) {\n            return RequestStatus.NotRequested;\n        } else if (priceRequest.lastVotingRound < currentRoundId) {\n            VoteInstance storage voteInstance = priceRequest.voteInstances[priceRequest.lastVotingRound];\n            (bool isResolved, ) =\n                voteInstance.resultComputation.getResolvedPrice(_computeGat(priceRequest.lastVotingRound));\n            return isResolved ? RequestStatus.Resolved : RequestStatus.Active;\n        } else if (priceRequest.lastVotingRound == currentRoundId) {\n            return RequestStatus.Active;\n        } else {\n            // Means than priceRequest.lastVotingRound > currentRoundId\n            return RequestStatus.Future;\n        }\n    }\n\n    function _getIdentifierWhitelist() private view returns (IdentifierWhitelistInterface supportedIdentifiers) {\n        return IdentifierWhitelistInterface(finder.getImplementationAddress(OracleInterfaces.IdentifierWhitelist));\n    }\n}\n",
    "sourcePath": "/Users/nicholaspai/UMA/protocol/packages/core/contracts/oracle/implementation/Voting.sol",
    "compiler": {
        "name": "solc",
        "version": "0.6.12+commit.27d51765.Emscripten.clang"
    },
    "schemaVersion": "3.2.3",
    "updatedAt": "2021-02-22T14:46:43.141Z",
    "devdoc": {
        "details": "Handles receiving and resolving price requests via a commit-reveal voting scheme.",
        "kind": "dev",
        "methods": {
            "batchCommit((bytes32,uint256,bytes,bytes32,bytes)[])": {
                "details": "Using `encryptedVote` is optional. If included then commitment is emitted in an event. Look at `project-root/common/Constants.js` for the tested maximum number of commitments that can fit in one transaction.",
                "params": {
                    "commits": "struct to encapsulate an `identifier`, `time`, `hash` and optional `encryptedVote`."
                }
            },
            "batchCommit((bytes32,uint256,bytes32,bytes)[])": {
                "details": "Using `encryptedVote` is optional. If included then commitment is stored on chain. Look at `project-root/common/Constants.js` for the tested maximum number of commitments that can fit in one transaction.",
                "params": {
                    "commits": "array of structs that encapsulate an `identifier`, `time`, `hash` and optional `encryptedVote`."
                }
            },
            "batchReveal((bytes32,uint256,int256,bytes,int256)[])": {
                "details": "For more info on reveals, review the comment for `revealVote`.",
                "params": {
                    "reveals": "array of the Reveal struct which contains an identifier, time, price and salt."
                }
            },
            "batchReveal((bytes32,uint256,int256,int256)[])": {
                "details": "For more information on reveals, review the comment for `revealVote`.",
                "params": {
                    "reveals": "array of the Reveal struct which contains an identifier, time, price and salt."
                }
            },
            "commitAndEmitEncryptedVote(bytes32,uint256,bytes,bytes32,bytes)": {
                "details": "An encrypted version of the vote is emitted in an event `EncryptedVote` to allow off-chain infrastructure to retrieve the commit. The contents of `encryptedVote` are never used on chain: it is purely for convenience.",
                "params": {
                    "ancillaryData": "arbitrary data appended to a price request to give the voters more info from the caller.",
                    "encryptedVote": "offchain encrypted blob containing the voters amount, time and salt.",
                    "hash": "keccak256 hash of the price you want to vote for and a `int256 salt`.",
                    "identifier": "unique price pair identifier. Eg: BTC/USD price pair.",
                    "time": "unix timestamp of for the price request."
                }
            },
            "commitAndEmitEncryptedVote(bytes32,uint256,bytes32,bytes)": {
                "details": "An encrypted version of the vote is emitted in an event `EncryptedVote` to allow off-chain infrastructure to retrieve the commit. The contents of `encryptedVote` are never used on chain: it is purely for convenience.",
                "params": {
                    "encryptedVote": "offchain encrypted blob containing the voters amount, time and salt.",
                    "hash": "keccak256 hash of the price you want to vote for and a `int256 salt`.",
                    "identifier": "unique price pair identifier. Eg: BTC/USD price pair.",
                    "time": "unix timestamp of for the price request."
                }
            },
            "commitVote(bytes32,uint256,bytes,bytes32)": {
                "details": "`identifier`, `time` must correspond to a price request that's currently in the commit phase. Commits can be changed.Since transaction data is public, the salt will be revealed with the vote. While this is the systems expected behavior, voters should never reuse salts. If someone else is able to guess the voted price and knows that a salt will be reused, then they can determine the vote pre-reveal.",
                "params": {
                    "ancillaryData": "arbitrary data appended to a price request to give the voters more info from the caller.",
                    "hash": "keccak256 hash of the `price`, `salt`, voter `address`, `time`, current `roundId`, and `identifier`.",
                    "identifier": "uniquely identifies the committed vote. EG BTC/USD price pair.",
                    "time": "unix timestamp of the price being voted on."
                }
            },
            "commitVote(bytes32,uint256,bytes32)": {
                "details": "`identifier`, `time` must correspond to a price request that's currently in the commit phase. Commits can be changed.Since transaction data is public, the salt will be revealed with the vote. While this is the systems expected behavior, voters should never reuse salts. If someone else is able to guess the voted price and knows that a salt will be reused, then they can determine the vote pre-reveal.",
                "params": {
                    "hash": "keccak256 hash of the `price`, `salt`, voter `address`, `time`, current `roundId`, and `identifier`.",
                    "identifier": "uniquely identifies the committed vote. EG BTC/USD price pair.",
                    "time": "unix timestamp of the price being voted on."
                }
            },
            "constructor": {
                "params": {
                    "_finder": "keeps track of all contracts within the system based on their interfaceName.",
                    "_gatPercentage": "of the total token supply that must be used in a vote to create a valid price resolution.",
                    "_inflationRate": "percentage inflation per round used to increase token supply of correct voters.",
                    "_phaseLength": "length of the commit and reveal phases in seconds.",
                    "_rewardsExpirationTimeout": "timeout, in seconds, within which rewards must be claimed.",
                    "_timerAddress": "Contract that stores the current time in a testing environment. Must be set to 0x0 for production environments that use live time.",
                    "_votingToken": "address of the UMA token contract used to commit votes."
                }
            },
            "getCurrentRoundId()": {
                "returns": {
                    "_0": "uint256 representing the unique round ID."
                }
            },
            "getCurrentTime()": {
                "returns": {
                    "_0": "uint for the current Testable timestamp."
                }
            },
            "getPendingRequests()": {
                "returns": {
                    "_0": "pendingRequests array containing identifiers of type `PendingRequest`. and timestamps for all pending requests."
                }
            },
            "getPrice(bytes32,uint256)": {
                "details": "If the price is not available, the method reverts.",
                "params": {
                    "identifier": "uniquely identifies the price requested. eg BTC/USD (encoded as bytes32) could be requested.",
                    "time": "unix timestamp for the price request."
                },
                "returns": {
                    "_0": "int256 representing the resolved price for the given identifier and timestamp."
                }
            },
            "getPrice(bytes32,uint256,bytes)": {
                "details": "If the price is not available, the method reverts.",
                "params": {
                    "ancillaryData": "arbitrary data appended to a price request to give the voters more info from the caller.",
                    "identifier": "uniquely identifies the price requested. eg BTC/USD (encoded as bytes32) could be requested.",
                    "time": "unix timestamp of for the price request."
                },
                "returns": {
                    "_0": "int256 representing the resolved price for the given identifier and timestamp."
                }
            },
            "getPriceRequestStatuses((bytes32,uint256,bytes)[])": {
                "details": "If the status for a particular request is NotRequested, the lastVotingRound will always be 0.",
                "params": {
                    "requests": "array of type PendingRequest which includes an identifier and timestamp for each request."
                },
                "returns": {
                    "_0": "requestStates a list, in the same order as the input list, giving the status of each of the specified price requests."
                }
            },
            "getVotePhase()": {
                "returns": {
                    "_0": "Phase to indicate the current phase. Either { Commit, Reveal, NUM_PHASES_PLACEHOLDER }."
                }
            },
            "hasPrice(bytes32,uint256)": {
                "details": "Time must be in the past and the identifier must be supported.",
                "params": {
                    "identifier": "uniquely identifies the price requested. eg BTC/USD (encoded as bytes32) could be requested.",
                    "time": "unix timestamp for the price request."
                },
                "returns": {
                    "_0": "bool if the DVM has resolved to a price for the given identifier and timestamp."
                }
            },
            "hasPrice(bytes32,uint256,bytes)": {
                "details": "Time must be in the past and the identifier must be supported.",
                "params": {
                    "ancillaryData": "arbitrary data appended to a price request to give the voters more info from the caller.",
                    "identifier": "uniquely identifies the price requested. eg BTC/USD (encoded as bytes32) could be requested.",
                    "time": "unix timestamp of for the price request."
                },
                "returns": {
                    "_0": "_hasPrice bool if the DVM has resolved to a price for the given identifier and timestamp."
                }
            },
            "owner()": {
                "details": "Returns the address of the current owner."
            },
            "renounceOwnership()": {
                "details": "Leaves the contract without owner. It will not be possible to call `onlyOwner` functions anymore. Can only be called by the current owner. NOTE: Renouncing ownership will leave the contract without an owner, thereby removing any functionality that is only available to the owner."
            },
            "requestPrice(bytes32,uint256)": {
                "details": "Time must be in the past and the identifier must be supported.",
                "params": {
                    "identifier": "uniquely identifies the price requested. eg BTC/USD (encoded as bytes32) could be requested.",
                    "time": "unix timestamp for the price request."
                }
            },
            "requestPrice(bytes32,uint256,bytes)": {
                "details": "Time must be in the past and the identifier must be supported. The length of the ancillary data is limited such that this method abides by the EVM transaction gas limit.",
                "params": {
                    "ancillaryData": "arbitrary data appended to a price request to give the voters more info from the caller.",
                    "identifier": "uniquely identifies the price requested. eg BTC/USD (encoded as bytes32) could be requested.",
                    "time": "unix timestamp for the price request."
                }
            },
            "retrieveRewards(address,uint256,(bytes32,uint256)[])": {
                "details": "Can only retrieve rewards if calling for a valid round and if the call is done within the timeout threshold (not expired).",
                "params": {
                    "roundId": "the round from which voting rewards will be retrieved from.",
                    "toRetrieve": "array of PendingRequests which rewards are retrieved from.",
                    "voterAddress": "voter for which rewards will be retrieved. Does not have to be the caller."
                },
                "returns": {
                    "_0": "total amount of rewards returned to the voter."
                }
            },
            "retrieveRewards(address,uint256,(bytes32,uint256,bytes)[])": {
                "details": "Can only retrieve rewards if calling for a valid round and if the call is done within the timeout threshold (not expired). Note that a named return value is used here to avoid a stack to deep error.",
                "params": {
                    "roundId": "the round from which voting rewards will be retrieved from.",
                    "toRetrieve": "array of PendingRequests which rewards are retrieved from.",
                    "voterAddress": "voter for which rewards will be retrieved. Does not have to be the caller."
                },
                "returns": {
                    "totalRewardToIssue": "total amount of rewards returned to the voter."
                }
            },
            "revealVote(bytes32,uint256,int256,bytes,int256)": {
                "details": "The revealed `price`, `salt`, `address`, `time`, `roundId`, and `identifier`, must hash to the latest `hash` that `commitVote()` was called with. Only the committer can reveal their vote.",
                "params": {
                    "ancillaryData": "arbitrary data appended to a price request to give the voters more info from the caller.",
                    "identifier": "voted on in the commit phase. EG BTC/USD price pair.",
                    "price": "voted on during the commit phase.",
                    "salt": "value used to hide the commitment price during the commit phase.",
                    "time": "specifies the unix timestamp of the price being voted on."
                }
            },
            "revealVote(bytes32,uint256,int256,int256)": {
                "details": "The revealed `price`, `salt`, `address`, `time`, `roundId`, and `identifier`, must hash to the latest `hash` that `commitVote()` was called with. Only the committer can reveal their vote.",
                "params": {
                    "identifier": "voted on in the commit phase. EG BTC/USD price pair.",
                    "price": "voted on during the commit phase.",
                    "salt": "value used to hide the commitment price during the commit phase.",
                    "time": "specifies the unix timestamp of the price is being voted on."
                }
            },
            "setCurrentTime(uint256)": {
                "details": "Will revert if not running in test mode.",
                "params": {
                    "time": "timestamp to set current Testable time to."
                }
            },
            "setGatPercentage((uint256))": {
                "details": "This method is public because calldata structs are not currently supported by solidity.",
                "params": {
                    "newGatPercentage": "sets the next round's Gat percentage."
                }
            },
            "setInflationRate((uint256))": {
                "details": "This method is public because calldata structs are not currently supported by solidity.",
                "params": {
                    "newInflationRate": "sets the next round's inflation rate."
                }
            },
            "setMigrated(address)": {
                "details": "Can only be called by the contract owner.",
                "params": {
                    "newVotingAddress": "the newly migrated contract address."
                }
            },
            "setRewardsExpirationTimeout(uint256)": {
                "details": "This change only applies to rounds that have not yet begun.",
                "params": {
                    "NewRewardsExpirationTimeout": "how long a caller can wait before choosing to withdraw their rewards."
                }
            },
            "snapshotCurrentRound(bytes)": {
                "details": "This function can be called multiple times, but only the first call per round into this function or `revealVote` will create the round snapshot. Any later calls will be a no-op. Will revert unless called during reveal period.",
                "params": {
                    "signature": "signature required to prove caller is an EOA to prevent flash loans from being included in the snapshot."
                }
            },
            "transferOwnership(address)": {
                "details": "Transfers ownership of the contract to a new account (`newOwner`). Can only be called by the current owner."
            }
        },
        "title": "Voting system for Oracle.",
        "version": 1
    },
    "userdoc": {
        "kind": "user",
        "methods": {
            "batchCommit((bytes32,uint256,bytes,bytes32,bytes)[])": {
                "notice": "Submit a batch of commits in a single transaction."
            },
            "batchCommit((bytes32,uint256,bytes32,bytes)[])": {
                "notice": "Submit a batch of commits in a single transaction."
            },
            "batchReveal((bytes32,uint256,int256,bytes,int256)[])": {
                "notice": "Reveal multiple votes in a single transaction. Look at `project-root/common/Constants.js` for the tested maximum number of reveals. that can fit in one transaction."
            },
            "batchReveal((bytes32,uint256,int256,int256)[])": {
                "notice": "Reveal multiple votes in a single transaction. Look at `project-root/common/Constants.js` for the tested maximum number of reveals. that can fit in one transaction."
            },
            "commitAndEmitEncryptedVote(bytes32,uint256,bytes,bytes32,bytes)": {
                "notice": "commits a vote and logs an event with a data blob, typically an encrypted version of the vote"
            },
            "commitAndEmitEncryptedVote(bytes32,uint256,bytes32,bytes)": {
                "notice": "commits a vote and logs an event with a data blob, typically an encrypted version of the vote"
            },
            "commitVote(bytes32,uint256,bytes,bytes32)": {
                "notice": "Commit a vote for a price request for `identifier` at `time`."
            },
            "commitVote(bytes32,uint256,bytes32)": {
                "notice": "Commit a vote for a price request for `identifier` at `time`."
            },
            "constructor": "Construct the Voting contract.",
            "getCurrentRoundId()": {
                "notice": "Returns the current round ID, as a function of the current time."
            },
            "getCurrentTime()": {
                "notice": "Gets the current time. Will return the last time set in `setCurrentTime` if running in test mode. Otherwise, it will return the block timestamp."
            },
            "getPendingRequests()": {
                "notice": "Gets the queries that are being voted on this round."
            },
            "getPrice(bytes32,uint256)": {
                "notice": "Gets the price for `identifier` and `time` if it has already been requested and resolved."
            },
            "getPrice(bytes32,uint256,bytes)": {
                "notice": "Gets the price for `identifier` and `time` if it has already been requested and resolved."
            },
            "getPriceRequestStatuses((bytes32,uint256,bytes)[])": {
                "notice": "Gets the status of a list of price requests, identified by their identifier and time."
            },
            "getVotePhase()": {
                "notice": "Returns the current voting phase, as a function of the current time."
            },
            "hasPrice(bytes32,uint256)": {
                "notice": "Whether the price for `identifier` and `time` is available."
            },
            "hasPrice(bytes32,uint256,bytes)": {
                "notice": "Whether the price for `identifier` and `time` is available."
            },
            "requestPrice(bytes32,uint256)": {
                "notice": "Enqueues a request (if a request isn't already present) for the given `identifier`, `time` pair."
            },
            "requestPrice(bytes32,uint256,bytes)": {
                "notice": "Enqueues a request (if a request isn't already present) for the given `identifier`, `time` pair."
            },
            "retrieveRewards(address,uint256,(bytes32,uint256)[])": {
                "notice": "Retrieves rewards owed for a set of resolved price requests."
            },
            "retrieveRewards(address,uint256,(bytes32,uint256,bytes)[])": {
                "notice": "Retrieves rewards owed for a set of resolved price requests."
            },
            "revealVote(bytes32,uint256,int256,bytes,int256)": {
                "notice": "Reveal a previously committed vote for `identifier` at `time`."
            },
            "revealVote(bytes32,uint256,int256,int256)": {
                "notice": "Reveal a previously committed vote for `identifier` at `time`."
            },
            "setCurrentTime(uint256)": {
                "notice": "Sets the current time."
            },
            "setGatPercentage((uint256))": {
                "notice": "Resets the Gat percentage. Note: this change only applies to rounds that have not yet begun."
            },
            "setInflationRate((uint256))": {
                "notice": "Resets the inflation rate. Note: this change only applies to rounds that have not yet begun."
            },
            "setMigrated(address)": {
                "notice": "Disables this Voting contract in favor of the migrated one."
            },
            "setRewardsExpirationTimeout(uint256)": {
                "notice": "Resets the rewards expiration timeout."
            },
            "snapshotCurrentRound(bytes)": {
                "notice": "Snapshot the current round's token balances and lock in the inflation rate and GAT."
            }
        },
        "version": 1
    }
}